:100000000C9476000C949E000C949E000C949E0020
:100010000C949E000C949E000C949E000C949E00E8
:100020000C949E000C949E000C949E000C94000571
:100030000C949E000C949E000C949E000C949E00C8
:100040000C944C030C949E000C94CE040C94A804C5
:100050000C949E000C949E000C949E000C949E00A8
:100060000C949E000C949E0007634236B79BD8A761
:100070001A39685618AEBAAB558C1D3CB7CC5763CD
:10008000BD6DEDFD753EF6177231BF000000803F7B
:1000900000000000230026002900000000002400CA
:1000A00027002A0000000000250028002B0004047F
:1000B0000404040404040202020202020303030310
:1000C00003030102040810204080010204081020EC
:1000D00001020408102000000008000201000003D3
:1000E00004070000000000000000241211241FBEBD
:1000F000CFEFD8E0DEBFCDBF13E0A0E0B1E0EAEF84
:10010000FDE202C005900D92A631B107D9F725E0B6
:10011000A6E1B3E001C01D92A033B207E1F710E001
:10012000C6E7D0E004C02197FE010E94F016C53753
:10013000D107C9F70E9406060C94FB160C94000028
:10014000009769F0FC0101900020E9F73197AF01B9
:10015000481B590BBC0180E594E00C94960380E0A9
:1001600090E0089587E093E00C94A000CF93DF9394
:100170000E94A000EC010E94B2008C0F9D1FDF9135
:10018000CF9108958F929F92AF92BF920F931F933A
:10019000CF93DF93CDB7DEB7A1970FB6F894DEBF4C
:1001A0000FBECDBF19A2423008F44AE08E010F5DA8
:1001B0001F4F842E912CA12CB12CA50194010E94DB
:1001C0008B13E62FB901CA0101501109EA3014F46A
:1001D000E05D01C0E95CD801EC93232B242B252B97
:1001E00061F7C8010E94A000A1960FB6F894DEBF87
:1001F0000FBECDBFDF91CF911F910F91BF90AF90F8
:100200009F908F9008958F929F92AF92BF92CF92BE
:10021000DF92EF92FF920F931F93CF93DF936B01C7
:100220007C01142F9B01AC010E94D116882319F088
:100230008AE093E027C046015701E894B7F82FEF12
:100240003FEF4FE75FE7C501B4010E94D11681116E
:100250000DC02FEF3FEF4FE75FE7C501B4010E94EC
:10026000291418161CF48EE093E00CC02FEF3FEF1A
:100270004FE75FE4C701B6010E94E915181684F440
:1002800082E193E0DF91CF911F910F91FF90EF906A
:10029000DF90CF90BF90AF909F908F900C94A00074
:1002A0002FEF3FEF4FE75FECC701B6010E94291423
:1002B00087FDE6CF20E030E0A901C701B6010E942A
:1002C000291487FF0BC06DE280E594E00E942D04A5
:1002D000EC01F7FAF094F7F8F09402C0C0E0D0E037
:1002E00000E060E070E080E09FE3101741F020E064
:1002F00030E040E251E40E942E140F5FF6CFA701D8
:1003000096010E94BD136B017C010E94E1144B0118
:100310005C014AE00E94C200C80FD91F1123B9F145
:10032000C501B4010E9410159B01AC01C701B601C3
:100330000E94BC136B017C016EE280E594E00E9498
:100340002D04C80FD91F20E030E040E251E4C7017E
:10035000B6010E9464164B015C010E94E1146B011E
:10036000E12CF12C4AE0C701B6010E94C200C80F7F
:10037000D91FC701B6010E9410159B01AC01C50130
:10038000B4010E94BC136B017C011150E1F6CE0157
:10039000DF91CF911F910F91FF90EF90DF90CF9061
:1003A000BF90AF909F908F9008950C94A000CF9233
:1003B000DF92EF92FF92CF93DF936B017C016DE2AE
:1003C00080E594E00E942D04EC0166277727CB019D
:1003D0006C197D098E099F094AE00E94C2008C0FAA
:1003E0009D1FDF91CF91FF90EF90DF90CF90089508
:1003F000BC01990F880B990B97FD0C94D7014AE02B
:100400000C94C200CF93DF930E94F801EC010E948C
:10041000B2008C0F9D1FDF91CF910895CF93DF9392
:100420000E940301EC010E94B2008C0F9D1FDF911E
:10043000CF910895CF92DF92EF92FF92DC01A0322C
:1004400082E0B8070CF03EC0B7FD06C0A53BB10581
:100450002CF0A4EBB0E002C0A0E0B0E08091130566
:1004600028E830E06901C81AD10887FDD394CC0C84
:10047000DD1CCC0CDD1C0D2C000CEE08FF0880915F
:10048000140528E532E0281B310987FD3395220F3A
:10049000331F220F331FA901330F660B770B9A010D
:1004A000AB012C193D094E095F090E94831324EB0F
:1004B00030E040E050E00E945913C20ED31EE41E0B
:1004C000F51ED601909112059C3098F58091130588
:1004D00048E850E0481B510987FD5395440F551FCC
:1004E000440F551FA417B5078CF08091140528E51B
:1004F00032E0281B310987FD3395220F331F220F6D
:10050000331FAD012A173B070CF4A90142505109D2
:10051000440F551F2FB7F894892F90E0FC01EE0F80
:10052000FF1F8E0F9F1FFC01E351FB4F528341833E
:100530002FBFFF90EF90DF90CF90089590E0FC01E7
:10054000EA52FF4F2491FC01EE53FF4F3491FC011E
:10055000E255FF4FE491EE2309F43CC0222339F128
:10056000233091F038F42130A9F0223001F584B520
:100570008F7D12C0273091F02830A1F02430B9F4DB
:10058000809180008F7D03C0809180008F77809361
:1005900080000DC084B58F7784BD09C08091B00004
:1005A0008F7703C08091B0008F7D8093B000F0E022
:1005B000EE0FFF1FEC55FF4FA591B4919FB7F89434
:1005C000611104C08C913095382302C0EC913E2B10
:1005D0003C939FBF0895CF93DF9390E0FC01EE53CF
:1005E000FF4F2491FC01E255FF4F8491882361F174
:1005F00090E0880F991FFC01E656FF4FC591D491FA
:10060000FC01EC55FF4FA591B491611109C09FB752
:10061000F8948881209582238883EC912E230BC047
:10062000623061F49FB7F8948881322F309583232C
:100630008883EC912E2B2C939FBF06C08FB7F89424
:10064000E8812E2B28838FBFDF91CF9108953FB78C
:10065000F89480912B0590912C05A0912D05B091D7
:100660002E0526B5A89B05C02F3F19F00196A11DA8
:10067000B11D3FBFBA2FA92F982F8827820F911D38
:10068000A11DB11DBC01CD0142E0660F771F881F7F
:10069000991F4A95D1F708951F920F920FB60F92A6
:1006A00011242F933F938F939F93AF93BF93809188
:1006B0004C0490914D04A0914E04B0914F043091A0
:1006C0002A0523E0230F2D3720F40196A11DB11D2B
:1006D00005C026E8230F0296A11DB11D20932A050F
:1006E00080934C0490934D04A0934E04B0934F0418
:1006F00080912B0590912C05A0912D05B0912E0590
:100700000196A11DB11D80932B0590932C05A093FC
:100710002D05B0932E05BF91AF919F918F913F9181
:100720002F910F900FBE0F901F901895CF92DF92D0
:10073000EF92FF920F931F93CF93DF936C017A0197
:100740008B01C0E0D0E0CE15DF0581F0D8016D91BE
:100750008D01D601ED91FC910190F081E02DC60153
:100760000995892B11F02196EECF7E01C701DF910B
:10077000CF911F910F91FF90EF90DF90CF90089550
:10078000089580E090E00895FC01538D448D252F5D
:1007900030E0842F90E0821B930B541710F0CF961B
:1007A000089501970895FC01918D828D981761F04D
:1007B000828DDF01A80FB11D5D968C91928D9F5F98
:1007C0009F73928F90E008958FEF9FEF0895FC0143
:1007D000918D828D981731F0828DE80FF11D858DF6
:1007E00090E008958FEF9FEF0895FC01918D228D89
:1007F000892F90E0805C9F4F821B91098F7399270E
:10080000089580E594E00E94F50321E0892B09F426
:1008100020E0822F0895FC01848DDF01A80FB11D17
:10082000A35ABF4F2C91848D90E001968F73992726
:10083000848FA689B7892C93A089B1898C91837004
:1008400080648C93938D848D981306C00288F389FD
:10085000E02D80818F7D80830895EF92FF920F932A
:100860001F93CF93DF93EC0181E0888F9B8D8C8D5C
:10087000981305C0E889F989808185FD26C0F62E88
:100880000B8D10E00F5F1F4F0F731127E02E8C8D23
:10089000E8120CC00FB607FCFACFE889F98980810D
:1008A00085FFF5CFCE010E940B04F1CF8B8DFE01A9
:1008B000E80FF11DE35AFF4FF0829FB7F8940B8FBA
:1008C000EA89FB89808180620AC09FB7F894EE892B
:1008D000FF896083E889F9898081837080648083DF
:1008E0009FBF81E090E0DF91CF911F910F91FF902A
:1008F000EF900895CF93DF93EC01888D8823C9F0A2
:10090000EA89FB89808185FD05C0A889B9898C9118
:1009100086FD0FC00FB607FCF5CF808185FFF2CFB3
:10092000A889B9898C9185FFEDCFCE010E940B0477
:10093000E7CFDF91CF91089580E090E0892B29F0F7
:100940000E94010481110C94000008950E94F61683
:100950001F920F920FB60F9211242F933F934F9334
:100960005F936F937F938F939F93AF93BF93EF9317
:10097000FF9380E594E00E940B04FF91EF91BF91FB
:10098000AF919F918F917F916F915F914F913F9127
:100990002F910F900FBE0F901F9018951F920F92DE
:1009A0000FB60F9211242F938F939F93EF93FF9382
:1009B000E0916004F09161048081E0916604F0911F
:1009C000670482FD12C09081809169048F5F8F73EC
:1009D00020916A04821751F0E0916904F0E0E05B35
:1009E000FB4F958F8093690401C08081FF91EF9147
:1009F0009F918F912F910F900FBE0F901F90189580
:100A00001F920F920FB60F9211242F933F934F9383
:100A10005F936F937F938F939F93AF93BF93EF9366
:100A2000FF9380912F0587FF05C0109285001092DB
:100A300084001BC020912F05022E000C330B8091E7
:100A4000110590E02817390784F480912F05082EAE
:100A5000000C990BFC01EE0FFF1F8E0F9F1FFC0176
:100A6000E351FB4F808186FD15C080912F058F5F7C
:100A700080932F0520912F05022E000C330B8091BF
:100A8000110590E028173907C4F480912F058C30A8
:100A900064F113C080912F05082E000C990BFC0106
:100AA000EE0FFF1F8E0F9F1FFC01E351FB4F808154
:100AB00060E08F730E949E02D8CF80918400909155
:100AC0008500049680349C4918F480E49CE905C0B4
:100AD0008091840090918500049690938900809382
:100AE00088008FEF80932F053BC0209184003091C8
:100AF000850080912F05082E000C990BFC01EE0F4C
:100B0000FF1F8E0F9F1FFC01E351FB4F81819281DC
:100B1000820F931F909389008093880080912F0506
:100B2000082E000C990BFC01EE0FFF1F8E0F9F1F6C
:100B3000FC01E351FB4F808186FF12C080912F059D
:100B4000082E000C990BFC01EE0FFF1F8E0F9F1F4C
:100B5000FC01E351FB4F808161E08F730E949E0294
:100B6000FF91EF91BF91AF919F918F917F916F9185
:100B70005F914F913F912F910F900FBE0F901F905B
:100B80001895CF92DF92EF92FF920F931F93E82F69
:100B9000F92F05C0015011092109310961F1908136
:100BA00096239417B9F305C00150110921093109A1
:100BB00011F1908196239413F7CFC12CD12CE12C05
:100BC000F12C0AC08FEFC81AD80AE80AF80A0C15E7
:100BD0001D052E053F0579F080818623841791F34A
:100BE0006C2D7D2D8E2D9F2D1F910F91FF90EF90DD
:100BF000DF90CF90089560E070E080E090E01F917A
:100C00000F91FF90EF90DF90CF900895CF93DF93F7
:100C1000CDB7DEB7AE970FB6F894DEBF0FBECDBF2F
:100C2000789484B5826084BD84B5816084BD85B5C7
:100C3000826085BD85B5816085BD80916E008160D3
:100C400080936E0010928100809181008260809379
:100C5000810080918100816080938100809180007B
:100C60008160809380008091B10084608093B100A6
:100C70008091B00081608093B00080917A008460A0
:100C800080937A0080917A00826080937A008091CC
:100C90007A00816080937A0080917A0080688093E6
:100CA0007A001092C1008CE591E00E94B600E091BC
:100CB0006004F091610482E08083E0915C04F09133
:100CC0005D041082E0915E04F0915F048FEC8083FC
:100CD00010926804E0916404F091650486E08083DA
:100CE000E0916204F0916304808180618083E091EF
:100CF0006204F0916304808188608083E0916204E3
:100D0000F0916304808180688083E0916204F091B7
:100D1000630480818F7D80838CE691E00E94B60021
:100D200061E0809100010E94EB0261E0809102018C
:100D30000E94EB0261E0809104010E94EB0261E0FD
:100D4000809106010E94EB0281E891E00E94B600CA
:100D500086E991E00E94B6008AE590E00E941A02BE
:100D6000809124059091250590932205809321057B
:100D700082EA91E00E94B60010911505809112055B
:100D80008C3008F052C061E0812F0E94EB0280910C
:100D90001205E82FF0E09F01220F331FE20FF31F2F
:100DA000E351FB4F1F739081907C192B108310929D
:100DB0001305109214056CE00E94E4162CE0829F4B
:100DC000B001112440E050E09B01240F351FF901D0
:100DD000EE0FFF1F2E0F3F1FF901E351FB4F9081D4
:100DE00096FD16C04F5F5F4F4C30510569F781117A
:100DF0000FC01092800082E08093810010928500E5
:100E000010928400B19A80916F00826080936F008D
:100E1000E0911205F0E0CF01880F991FE80FF91F4C
:100E2000E351FB4F80818064808386EB91E00E94D8
:100E3000B60061E080911C010E94EB0260E08091AD
:100E40001A010E94EB0261E085E00E94EB0261E082
:100E500086E00E94EB0261E085E00E94EB0261E027
:100E600085E00E949E0261E086E00E94EB0261E064
:100E700086E00E949E0283E480937C0080917A0049
:100E8000806480937A0080917A0086FDFCCF609127
:100E900078008091790070E0782B072E000C880B89
:100EA000990B611571058105910511F00E94501390
:100EB00081E090E09093B3038093B203E0EAF3E023
:100EC00080E090E081939193019688309105D1F76D
:100ED0009093B1038093B00387EC91E00E94B60039
:100EE000109233041092320434E6C32ED12CE12C3C
:100EF000F12C809132049091330404970CF067C078
:100F00001092ED031092EC03E091EC03F091ED03ED
:100F10008091320490913304E430F1050CF051C01B
:100F2000EE0FFF1FEE0FFF1FE80FF91FEE0FFF1F61
:100F3000EE0FFF1FE05AFC4F1082118212821382C3
:100F40000E940213A090EC03B090ED038501000F06
:100F5000111F000F111F2091320430913304020F32
:100F6000131F000F111F000F111F0E501C4FA70160
:100F700096010E9459130E94121520E030E048ECBF
:100F800052E40E942E1420E030E040E05FE30E9433
:100F9000BC139B01AC010E94BD1320E030E040E097
:100FA0005FE30E946416D8016D937D938D939C93AB
:100FB0001397BFEFAB1ABB0AB092ED03A092EC03FC
:100FC000A3CF0196909333048093320492CF109272
:100FD00033041092320464E6C62ED12CE12CF12C9D
:100FE000809132049091330402970CF062C0109209
:100FF000ED031092EC03E091EC03F091ED0380918E
:10100000320490913304E530F1050CF04CC0EE0F42
:10101000FF1FE80FF91FEE0FFF1FEE0FFF1FE85C29
:10102000FC4F10821182128213820E940213A09040
:10103000EC03B090ED038501000F111F20913204E5
:1010400030913304020F131F000F111F000F111FE7
:101050000C541C4FA70196010E9459130E941215AF
:1010600020E030E048EC52E40E942E1420E030E012
:1010700040E05FE30E94BC139B01AC010E94BD13E2
:1010800020E030E040E05FE30E946416F8016083F6
:10109000718382839383FFEFAF1ABF0AB092ED038F
:1010A000A092EC03A8CF019690933304809332046E
:1010B00097CF81E090E0A0E0B0E08093340390937C
:1010C0003503A0933603B093370380913403909196
:1010D0003503A0913603B09137038F3F9F4FAF4F39
:1010E000BF4721F493E0692E712C4AC61092B103D8
:1010F0001092B0034091B0035091B1035A8B498BC9
:101100004830510554F50E94021328E030E040E0D9
:1011100050E00E945913709333036093320300919F
:10112000B0031091B103D801AA0FBB1FA056BC4F4A
:101130002D913C911197FB01EE0FFF1FE056FC4FE4
:10114000408151814D935C9331832083C801019686
:101150009093B1038093B003CDCF4090EE035090B5
:10116000EF036090F0037090F1038091320490914E
:101170003304E090EC03F090ED03A0EAB3E0BCA7E9
:10118000ABA71A8E198E1B8E1C8E1D8E1E8EE98D9E
:10119000FA8D389709F4E4C2ABA5BCA5ED91FD9199
:1011A000BCA7ABA7FA8BE98B22EF33E03E872D87F4
:1011B000CF01880F991F8E0F9F1FAC014E5C5E4FB1
:1011C00058A34F8F69015CED852E53E0952E52E0B8
:1011D000C51654E0D50609F448C0D601D0964D9006
:1011E0005D906D907C90D397AF8CB8A000E010E03C
:1011F000F50161915F017601E00EF11E70E080E083
:1012000090E00E941215D7012D913D914D915C9176
:101210000E9464169B01AC01C301B2010E94BD1380
:101220002B013C01005F1F4F0033110509F7905857
:101230000E94A81420E030E040E85FE30E94BD1364
:101240009B01AC0160E070E080E89FE30E942E14F7
:10125000F40161937193819391934F01F4E0CF0E68
:10126000D11C83E0E82EF12CB2CF24E334E0388B9C
:101270002F8789899A89880F991FAC014E5D5E4F2F
:101280005C8B4B8B86E293E09EA78DA7A4EBB3E02B
:10129000B88FAF8B1D019CA38BA32F8538892C534E
:1012A000344009F495C0D10190964D905D906D90B9
:1012B0007C9093971CEDE12E13E0F12E00E010E0FE
:1012C000F70161917191819191917F01F101E00F9D
:1012D000F11F20813181428153810E9464169B015C
:1012E000AC01C301B2010E94BD132B013C01085F98
:1012F0001F4F0032110521F790580E94A81420E0DA
:1013000030E040E85FE30E94BD139B01AC0160E068
:1013100070E080E89FE30E942E146B017C01AF8592
:10132000B8896D937D938D939D93B88BAF87EB892F
:10133000FC896191FC8BEB8B70E080E090E00E9477
:101340001215A70196010E94BC134B015C019B0181
:10135000AC01C701B6010E9464166FA378A789A7E4
:101360009AA7A701960160E070E080E89FE30E94E1
:10137000BC139B01AC016FA178A589A59AA50E9419
:101380006416ABA1BCA16D937D938D939D93BCA37B
:10139000ABA320E030E040E05FE3C501B4010E9470
:1013A0006416A50194010E9464169B01AC016B8D2B
:1013B0007C8D8D8D9E8D0E94BD136B8F7C8F8D8F4C
:1013C0009E8FB4E02B0E311CB4E0EB2EF12C65CFD8
:1013D000E6E1F3E0F88BEF872091260330912703B5
:1013E00040912803509129032BA33CA34DA35EA356
:1013F00080912A0390912B03A0912C03B0912D038F
:101400008FA398A7A9A7BAA71F01ACEDB3E0BC8B27
:10141000AB8B04EB13E0B3E0043D1B0709F451C0B0
:10142000F80120813181428153816BA17CA18DA182
:101430009EA10E94641620E030E0A9010E94BD1325
:101440006B017C01D80114962D913D914D915C91D9
:1014500017976FA178A589A59AA50E9464169B018C
:10146000AC01C701B6010E94BD132B013C01EB8901
:10147000FC89C190D190E190F190FC8BEB8B9B01AA
:10148000AC01C701B6010E9464164B015C01A701C3
:10149000960160E070E080E89FE30E94BC139B012E
:1014A000AC01C501B4010E946416D1016D937D9316
:1014B0008D939D931D01085F1F4FA2E0EA2EF12C32
:1014C000AACFF0E62F2EF3E03F2EB0E72B16B3E0C5
:1014D0003B0609F494C0EF85F88981909190A19022
:1014E000B190F88BEF8726E636E646E65FE3D1015A
:1014F000D0966D917D918D919C91D3970E946416A9
:101500006B017C012AE939E949E95EE3C501B401CF
:101510000E9464169B01AC01C701B6010E94BD1375
:101520009B01AC01F10160AB71AB82AB93ABAD85BC
:10153000BE85D0966D917D918D919C91D3970E949F
:10154000BD13ED85FE8560AB71AB82AB93AB6F01D4
:101550008101E12CF12CEF8DF8A1EE0DFF1D6081D2
:1015600070E080E090E00E9412152AE939E949E92B
:101570005EE30E946416A50194010E9464166B8BC1
:101580007C8B8D8B9E8B26E636E646E65FE3D801A4
:101590006D917D918D919C910E9464169B01AC018F
:1015A0006B897C898D899E890E94BD139B01AC014A
:1015B000F8016083718382839383D6016D917D915D
:1015C0008D919C910E94BD13F6016083718382838B
:1015D0009383FFEFEF1AFF0A005F1F4F20E1C20E57
:1015E000D11C33E0E316F10409F0B5CF44E0240E3A
:1015F000311C8D859E8504969E878D8766CFE8E396
:101600002E2EE3E03E2E90E4291693E0390609F4ED
:101610009EC0ADA5BEA58D909D90AD90BD90BEA77E
:10162000ADA726E636E646E65FE3F10160A171A1CB
:1016300082A193A10E9464166B017C012AE939E919
:1016400049E95EE3C501B4010E9464169B01AC0147
:10165000C701B6010E94BD139B01AC01D101909658
:101660006D937D938D939C939397EF89F88D60A1F3
:1016700071A182A193A10E94BD13AF89B88D9096EC
:101680006D937D938D939C939397BE87AD878101D6
:10169000ECEDF3E0F88BEF872F85388943E02C3EA3
:1016A000340709F447C0F90181919191A191B19159
:1016B000F88BEF878F8F98A3A9A3BAA326E636E607
:1016C00046E65FE3D8016D917D918D919C910E94DA
:1016D00064166B017C012AE939E949E95EE36F8D03
:1016E00078A189A19AA10E946416A50194010E9483
:1016F00064169B01AC01C701B6010E94BD139B019A
:10170000AC01F8016083718382839383AD85BE85CC
:101710006D917D918D919C910E94BD13ED85FE850B
:101720006083718382839383085F1F4F3896FE879F
:10173000ED87B2CFF4E02F0E311C2F89388D2C5F4E
:101740003F4F388F2F8B74E0E72EF12C5CCF498D03
:101750005A8D4F5F5F4F5A8F498F82E090E017CDCF
:1017600090933304809332044092EE035092EF033F
:101770006092F0037092F103F092ED03E092EC03BB
:1017800089899A899093B1038093B0032B8D3C8D06
:101790004D8D5E8D20932E0330932F0340933003A5
:1017A00050933103498D5A8D509333034093320344
:1017B0008091B2039091B30301979093B303809308
:1017C000B203892B09F011C2609134037091350383
:1017D000809136039091370324E630E040E050E0FA
:1017E0000E94591349015A0120E030E04AE754E4CD
:1017F0006B8D7C8D8D8D9E8D0E9464160E94DA14F7
:101800002B013C01CB01770FAA0BBB0B9C01AD0157
:101810002350310941095109A1EDBFEF0E94861300
:101820002DE430E040E050E00E94591369017A0154
:101830008FE2C80ED11CE11CF11C0E94B2000E9474
:10184000B2008FED91E00E94D50160913403709158
:101850003503809136039091370397FF03C00E94B0
:10186000D70103C04AE00E94C2008FEE91E00E94BF
:10187000D50160912E0370912F03809130039091D8
:10188000310345E050E00E940E028AEF91E00E9491
:10189000D501C4010E94F80188E092E00E94D501C0
:1018A000C2010E94F8018AE192E00E94D501C601BE
:1018B0000E9402021092B1031092B0038091B00313
:1018C0009091B10308970CF077C10E94B2008BE2AF
:1018D00092E00E94D5018091B0039091B1030E94E3
:1018E000020280E492E00E94D5011092330410922B
:1018F00032042091320430913304233031051CF539
:101900008091B0039091B103AC01440F551F840F37
:10191000951F8E5C9E4FFC01E20FF31F608170E00B
:1019200080E090E04AE00E94C20080E992E00E94DC
:10193000D501809132049091330401969093330441
:1019400080933204D6CF89E492E00E94D5011092B0
:1019500033041092320420913204309133042090E9
:10196000B0033090B10322303105ECF4C101880F8F
:10197000991F8E5D9E4FFC01E20FF31F608170E0A6
:1019800080E090E04AE00E94C20080E992E00E947C
:10199000D5018091320490913304019690933304E1
:1019A00080933204D8CF4090EE035090EF036090C4
:1019B000F0037090F1038091EC039091ED0302EF3E
:1019C00013E09101220F331F220D331DD901AE5CAC
:1019D000BE4F1D01ECEDF3E0FA8BE98BC12CD12C4D
:1019E000F4E0CF16D10409F44CC0D801D0964D9044
:1019F0005D906D907C90D3974101E12CF12CF40126
:101A000061914F015801AE0CBF1C70E080E090E086
:101A10000E941215D5012D913D914D915C910E942E
:101A200064169B01AC01C301B2010E94BD132B01DE
:101A30003C01B0E1EB0EF11CE0E3EE16F104F9F627
:101A400090580E94A81420E030E040E85FE30E9434
:101A5000BD139B01AC0160E070E080E89FE30E9451
:101A60002E14A989BA896D937D938D939D93BA8B1A
:101A7000A98BBFEFCB1ADB0A0C5F1F4F83E090E00E
:101A8000AFCF24E3822E24E0922E34EBE32E33E01A
:101A9000F32E00E010E00230110509F448C0F70110
:101AA00040A051A062A073A08CEDA82E83E0B82EB8
:101AB000C12CD12CD5016D917D918D919D915D01B0
:101AC000F701EC0DFD1D20813181428153810E947F
:101AD00064169B01AC01C301B2010E94BD132B012E
:101AE0003C01B8E0CB0ED11CE0E2CE16D10411F7D8
:101AF00090580E94A81420E030E040E85FE30E9484
:101B0000BD139B01AC0160E070E080E89FE30E94A0
:101B10002E14D4016D937D938D939D934D010F5F92
:101B20001F4FB4E0EB0EF11C84E090E0B4CF1093B3
:101B30003304009332044092EE035092EF0360921C
:101B4000F0037092F1039093ED038093EC0383E52F
:101B500092E00E94D50110923304109232048091D9
:101B600032049091330482309105E4F4880F991F78
:101B7000880F991FFC01EC5CFB4F608171818281B1
:101B8000938145E00E94030180E992E00E94B60043
:101B900080913204909133040196909333048093A2
:101BA0003204DDCF8091B0039091B1030196909300
:101BB000B1038093B00382CE8091340390913503BA
:101BC000A0913603B09137030197A105B10539F40F
:101BD00083E690E09093B3038093B20306C0E4E6FB
:101BE000F0E0F093B303E093B20327E137EB41ED6C
:101BF00059E360912E0370912F03809130039091EF
:101C000031030E94291487FD6DCA8091340390919D
:101C10003503A0913603B09137030196A11DB11D84
:101C20004CCA8091480490914904A0914A04B09113
:101C30004B048093440490934504A0934604B093CE
:101C4000470480914204909143048130910509F446
:101C5000C4C08230910509F4CFC0892B81F48DE294
:101C600090E00E941A02809126059091270590939A
:101C70002205809321058DE592E00E94B600E09058
:101C80004204F090430460E080911C010E949E0297
:101C9000C3010197F1F761E080911C010E949E024F
:101CA00083E290E00197F1F760E080911C010E94CF
:101CB0009E0280911A0190911B019927FC01EE531D
:101CC000FF4F6491FC01E255FF4FE491F0E0EE0F0D
:101CD000FF1FE057FF4F8591949100E412E42FE03D
:101CE00030E0462F0E94C1056115710581059105FF
:101CF00009F496C0DC01CB010196A11DB11DBF7096
:101D000090930D0180930C01BC01990F880B990BE6
:101D10000E94121528E23EE74CE05DE30E94641643
:101D200020E030E040E05FE30E9464160E94DA1495
:101D300070930F0160930E0182E892E00E94D5013A
:101D400080910E0190910F010E940202F701EE0FA7
:101D5000FF1FE45CFB4F80910E0190910F01918376
:101D600080838091420490914304019690934304B0
:101D70008093420480912305811156C00E949C04E7
:101D80002FB7F89480914C0490914D04A0914E048B
:101D9000B0914F042FBF8093480490934904A093BF
:101DA0004A04B0934B048091480490914904A09157
:101DB0004A04B0914B044091440450914504609111
:101DC000460470914704841B950BA60BB70B843F08
:101DD0009140A105B10590F224CF8AE590E00E94E0
:101DE0001A028091240590912505909322058093F5
:101DF000210582EA91E041CF87E890E00E941A0233
:101E000080912805909129059093220580932105C2
:101E10008FE692E00E94B60081E0809323052FCFE9
:101E200080E090E0DC016CCF1092430410924204F9
:101E3000C0903C04D0903D04E0903E04F0903F04FC
:101E4000009140041091410482E992E00E94D50182
:101E500080913C0490913D040E94F80180E992E059
:101E60000E94D50180913E0490913F040E94F801A8
:101E700080E992E00E94D501809140049091410454
:101E80000E94F8010E94B20061E070E02FE0C216EB
:101E9000D10414F060E070E0072E000C880B990B61
:101EA0000E9412154B015C0161E070E03FE0E31617
:101EB000F10414F060E070E0072E000C880B990B21
:101EC0000E9412156B017C0161E070E00F3011057A
:101ED00014F060E070E0072E000C880B990B0E9454
:101EE00012151B012C018AE992E00E94D50142E003
:101EF000C201B1010E94030182EA92E00E94D50171
:101F000042E0C701B6010E94030182EA92E00E940A
:101F1000D50142E050E0C501B4010E940E02898261
:101F20009A82AB82BC82CD82DE82EF82F8862986DD
:101F30003A864B865C86109233041092320480916C
:101F4000EC039091ED03C090EE03D090EF03E0908E
:101F5000F003F090F10302EF13E06CED262E63E046
:101F6000362E812C912C44E08416910409F449C04A
:101F7000D801D096CD90DD90ED90FC90D397FE01E6
:101F800031962F01A12CB12CD2016D917D918D91B3
:101F90009D912D01F801EA0DFB1D208131814281C7
:101FA00053810E9464169B01AC01C701B6010E94D7
:101FB000BD136B017C01B0E1AB0EB11CE0E3AE16CA
:101FC000B10411F790580E94A81420E030E040E8D6
:101FD0005FE30E94BD139B01AC0160E070E080E80C
:101FE0009FE30E942E14D1016D937D938D939D9359
:101FF0001D01BFEF8B1A9B0A0C5F1F4F83E090E01F
:10200000B2CF44E3242E44E0342E54EBA52E53E00B
:10201000B52E00E010E00230110509F448C0F501CA
:10202000C0A0D1A0E2A0F3A03CED432E33E0532E9C
:10203000812C912CD2016D917D918D919D912D01DD
:10204000F501E80DF91D20813181428153810E9403
:1020500064169B01AC01C701B6010E94BD136B0160
:102060007C01B8E08B0E911CE0E28E16910411F712
:1020700090580E94A81420E030E040E85FE30E94FE
:10208000BD139B01AC0160E070E080E89FE30E941B
:102090002E14D1016D937D938D939D931D010F5F40
:1020A0001F4FB4E0AB0EB11C84E090E0B4CF1093AE
:1020B000330400933204C092EE03D092EF03E09217
:1020C000F003F092F1039093ED038093EC0383E52A
:1020D00092E00E94D5011092330410923204809154
:1020E00032049091330482309105E4F4880F991FF3
:1020F000880F991FFC01EC5CFB4F6081718182812C
:10210000938145E00E94030180E992E00E94D5019D
:10211000809132049091330401969093330480931C
:102120003204DDCF0E94B200C0903404D090350458
:10213000E0903604F0903704809038049090390491
:10214000A0903A04B0903B048CEA92E00E94D50142
:1021500042E050E0C701B6010E940E0280EC92E01E
:102160000E94D50142E050E0C501B4010E940E0278
:1021700020E030E0A901C701B6010E94E91520E086
:1021800030E040E05FE387FD05C0C701B6010E9473
:10219000BD1304C0C701B6010E94BC130E94DA142B
:1021A0000E9412156B017C0120E030E0A901C501FD
:1021B000B4010E94E91520E030E040E05FE387FDD4
:1021C00005C0C501B4010E94BD1304C0C501B4011E
:1021D0000E94BC130E94DA140E9412154B015C018C
:1021E00084EA92E00E94D50142E050E0C701B601C6
:1021F0000E940E0288EB92E00E94D50142E050E07E
:10220000C501B4010E940E02C701B6010E94DA1492
:10221000072E000C880B990B0E9412156B017C0194
:10222000C501B4010E94DA14072E000C880B990B2B
:102230000E9412154B015C018CEC92E00E94D501CA
:1022400042E050E0C701B6010E940E028CED92E020
:102250000E94D50142E050E0C501B4010E940E0287
:1022600020E030E0A901C701B6010E94291420E056
:1022700030E040E85FE3882309F4B8C0C501B40149
:102280000E94291481111EC08CEE92E00E94B600BB
:1022900061E0809100010E949E0260E08091020155
:1022A0000E949E0261E0809104010E949E0260E013
:1022B000809106010E949E02E1E0F0E0F0930901A6
:1022C000E093080120E030E040E85FE3C701B60199
:1022D0000E94291481113AC020E030E0A901C50113
:1022E000B4010E942914811128C084EF92E00E9459
:1022F000B60060E0809100010E949E0260E0809143
:1023000002010E949E0261E0809104010E949E02EF
:1023100060E0809106010E949E0224E030E030934C
:1023200009012093080120E030E0A901C701B601AE
:102330000E942914811113C030C020E030E0A901AF
:10234000C701B6010E942914882339F120E030E04A
:10235000A901C501B4010E94291481111EC08FEF8B
:1023600092E00E94B60060E0809100010E949E020F
:1023700061E0809102010E949E0260E08091040170
:102380000E949E0261E0809106010E949E0282E00E
:1023900090E090930901809308010E9427036B014C
:1023A0007C0182E3882E912CA12CB12C0E94270362
:1023B000DC01CB018C199D09AE09BF09883E934011
:1023C000A105B10598F331E0831A9108A108B1087D
:1023D00048EEC40E43E0D41EE11CF11C81149104AC
:1023E000A104B10419F710922305C8CCC701B601A6
:1023F0000E942914882309F46FCF20E030E040E8E0
:102400005FE3C501B4010E9429148111C6CF89EF91
:1024100092E00E94B60061E0809100010E949E025D
:1024200060E0809102010E949E0260E080910401C0
:102430000E949E0260E0809106010E949E027092BE
:10244000090160920801A9CF10925304109252041E
:1024500088EE93E0A0E0B0E080935404909355049C
:10246000A0935604B09357048EE491E090935104E6
:102470008093500485EC90E090935D0480935C041D
:1024800084EC90E090935F0480935E0480EC90E095
:10249000909361048093600481EC90E090936304D6
:1024A0008093620482EC90E09093650480936404CE
:1024B00086EC90E090936704809366041092690420
:1024C00010926A0410926B0410926C0480911105B2
:1024D0008C30A0F491E0980F909311058093120531
:1024E00090E0FC01EE0FFF1F8E0F9F1FFC01E351D8
:1024F000FB4F88EB9BE09283818303C08FEF809337
:102500001205E5E1F5E085E1DF011D928A95E9F725
:102510008CE090E0909316058093150588EE93E08B
:1025200090931805809317051092190510921A05BB
:1025300010921B0510921C0510921D0510921E058D
:1025400010921F051092200581E090E090932505E0
:102550008093240582E090E09093270580932605E0
:1025600083E090E0909329058093280508958F9249
:102570009F92AF92BF92CF92DF92EF92FF92CF9352
:10258000DF93EC01688179818A819B8161157105F6
:102590008105910521F464E279ED8BE597E02DE169
:1025A00033EF41E050E00E94591349015A019B0169
:1025B000AC01A7EAB1E40E9478136B017C01ACEE98
:1025C000B4EFA50194010E948613DC01CB018C0DB0
:1025D0009D1DAE1DBF1DB7FF03C00197A109B048E7
:1025E00088839983AA83BB83BC01CD019F77DF9148
:1025F000CF91FF90EF90DF90CF90BF90AF909F90E2
:102600008F9008958F929F92AF92BF92CF92DF9258
:10261000EF92FF9260911E0170911F018091200145
:1026200090912101611571058105910521F464E204
:1026300079ED8BE597E02DE133EF41E050E00E942A
:10264000591349015A019B01AC01A7EAB1E40E9468
:1026500078136B017C01ACEEB4EFA50194010E94EC
:102660008613DC01CB018C0D9D1DAE1DBF1DB7FF78
:1026700003C00197A109B04880931E0190931F01E8
:10268000A0932001B0932101BC01CD019F77FF9061
:10269000EF90DF90CF90BF90AF909F908F90089574
:1026A00060931E0170931F0180932001909321017C
:1026B0000895052E97FB1EF400940E94701357FD99
:1026C00007D00E948B1307FC03D04EF40C947013B8
:1026D00050954095309521953F4F4F4F5F4F08954E
:1026E00090958095709561957F4F8F4F9F4F08957E
:1026F0000E94AD13A59F900DB49F900DA49F800DD7
:10270000911D11240895B7FF0C9478130E9478133B
:10271000821B930B0895A1E21A2EAA1BBB1BFD017D
:102720000DC0AA1FBB1FEE1FFF1FA217B307E407B0
:10273000F50720F0A21BB30BE40BF50B661F771F08
:10274000881F991F1A9469F76095709580959095E8
:102750009B01AC01BD01CF010895A29FB001B39FC1
:10276000C001A39F700D811D1124911DB29F700D9A
:10277000811D1124911D08955058BB27AA270E943E
:10278000D4130C94AF150E94A11538F00E94A8151F
:1027900020F039F49F3F19F426F40C9477150EF4C9
:1027A000E095E7FB0C947115E92F0E94C01558F3D2
:1027B000BA17620773078407950720F079F4A6F526
:1027C0000C94E2150EF4E0950B2EBA2FA02D0B0100
:1027D000B90190010C01CA01A0011124FF27591B66
:1027E00099F0593F50F4503E68F11A16F040A22F6C
:1027F000232F342F4427585FF3CF469537952795DD
:10280000A795F0405395C9F77EF41F16BA0B620BDB
:10281000730B840BBAF09150A1F0FF0FBB1F661F22
:10282000771F881FC2F70EC0BA0F621F731F841F65
:1028300048F4879577956795B795F7959E3F08F08B
:10284000B0CF9395880F08F09927EE0F979587954D
:1028500008950E944D1508F481E008950E944214E5
:102860000C94AF150E94A81558F00E94A11540F0D5
:1028700029F45F3F29F00C94711551110C94E31564
:102880000C9477150E94C01568F39923B1F3552372
:1028900091F3951B550BBB27AA2762177307840773
:1028A00038F09F5F5F4F220F331F441FAA1FA9F309
:1028B00035D00E2E3AF0E0E832D091505040E695F7
:1028C000001CCAF72BD0FE2F29D0660F771F881F58
:1028D000BB1F261737074807AB07B0E809F0BB0B4B
:1028E000802DBF01FF2793585F4F3AF09E3F51055F
:1028F00078F00C9471150C94E3155F3FE4F3983E67
:10290000D4F3869577956795B795F7959F5FC9F747
:10291000880F911D9695879597F90895E1E0660FC8
:10292000771F881FBB1F621773078407BA0720F041
:10293000621B730B840BBA0BEE1F88F7E0950895AA
:1029400029F416F00C9471150C94E2150C9477157B
:102950000E94C815A8F39638A0F707F80F92E894DC
:102960002BE33AEA48EB5FE70E947A160F920F9248
:102970000F924DB75EB70F920E943016E8E6F0E076
:102980000E947A154F915F91EF91FF91E595EE1FAF
:10299000FF1F49F0FE57E0684427EE0F441FFA95E9
:1029A000E1F74195550B0E94FA150F9007FE0C9424
:1029B000EE1508950E94E1146894B1110C94E3158A
:1029C00008950E94C81588F09F5798F0B92F99274D
:1029D000B751B0F0E1F0660F771F881F991F1AF00A
:1029E000BA95C9F714C0B13091F00E94E215B1E078
:1029F00008950C94E215672F782F8827B85F39F077
:102A0000B93FCCF3869577956795B395D9F73EF4A2
:102A100090958095709561957F4F8F4F9F4F08954A
:102A2000E89409C097FB3EF4909580957095619568
:102A30007F4F8F4F9F4F9923A9F0F92F96E9BB271E
:102A40009395F695879577956795B795F111F8CF9A
:102A5000FAF4BB0F11F460FF1BC06F5F7F4F8F4F05
:102A60009F4F16C0882311F096E911C0772321F0FB
:102A70009EE8872F762F05C0662371F096E8862F93
:102A800070E060E02AF09A95660F771F881FDAF7EA
:102A9000880F9695879597F90895990F0008550F17
:102AA000AA0BE0E8FEEF16161706E807F907C0F0D4
:102AB00012161306E407F50798F0621B730B840BDC
:102AC000950B39F40A2661F0232B242B252B21F4B6
:102AD00008950A2609F4A140A6958FEF811D811D56
:102AE000089597F99F6780E870E060E008959FEF90
:102AF00080EC0895DF93CF931F930F93FF92EF9293
:102B0000DF927B018C01689406C0DA2EEF010E94EF
:102B10007716FE01E894A59125913591459155913F
:102B2000A6F3EF010E94D413FE019701A801DA94E5
:102B300069F7DF90EF90FF900F911F91CF91DF9198
:102B4000089500240A941616170618060906089513
:102B500000240A9412161306140605060895092E79
:102B60000394000C11F4882352F0BB0F40F4BF2BE8
:102B700011F460FF04C06F5F7F4F8F4F9F4F089528
:102B800057FD9058440F551F59F05F3F71F047951E
:102B9000880F97FB991F61F09F3F79F08795089503
:102BA000121613061406551FF2CF4695F1DF08C022
:102BB000161617061806991FF1CF8695710561053F
:102BC00008940895E894BB2766277727CB0197F9E7
:102BD00008950E944D1508F48FEF08959B01AC01F4
:102BE00060E070E080E89FE30C942E140C94711563
:102BF0000C94D6160E94C815D8F39923C9F3940FE4
:102C0000511DA3F39150504094F059F0882332F0B5
:102C1000660F771F881F91505040C1F79E3F5105A6
:102C20002CF7880F911D9695879597F908955F3F2A
:102C3000ACF0983E9CF0BB27869577956795B79545
:102C400008F4B1609395C1F7BB0F58F711F460FF1A
:102C5000E8CF6F5F7F4F8F4F9F4FE3CF0C94E3150B
:102C6000FA01DC01AA0FBB1F9B01AC01BF5728F47E
:102C7000222733274427507820C0B75190F4AB2F38
:102C80000024469537952795011CA395D2F3002083
:102C900071F0220F331F441FB395DAF30ED00C945A
:102CA000BC1361307105A0E88A07B94630F49B0176
:102CB000AC016627772788279078309621F020830B
:102CC00031834283538308950E9477160C94AF1585
:102CD0000E94A11538F00E94A81520F0952311F04C
:102CE0000C9471150C94771511240C94E3150E9423
:102CF000C01570F3959FC1F3950F50E0551F629F6B
:102D0000F001729FBB27F00DB11D639FAA27F00D44
:102D1000B11DAA1F649F6627B00DA11D661F829F6B
:102D20002227B00DA11D621F739FB00DA11D621F50
:102D3000839FA00D611D221F749F3327A00D611D6D
:102D4000231F849F600D211D822F762F6A2F11244F
:102D50009F5750409AF0F1F088234AF0EE0FFF1F82
:102D6000BB1F661F771F881F91505040A9F79E3FD9
:102D7000510580F00C9471150C94E3155F3FE4F35A
:102D8000983ED4F3869577956795B795F795E7952F
:102D90009F5FC1F7FE2B880F911D9695879597F938
:102DA00008950E944D15880B990B08959F3F31F0AF
:102DB000915020F4879577956795B795880F911D69
:102DC0009695879597F90895991B79E004C0991F06
:102DD000961708F0961B881F7A95C9F78095089575
:102DE000EE0FFF1F0590F491E02D099481E090E033
:0A2DF000F8940C94FB16F894FFCF42
:102DFA00080009000A000B000000FF0000000000A4
:102E0A000000E803F40100000000130012000100B2
:102E1A0000000101010000000100000101010001A0
:102E2A000000000000000001000100010000000194
:102E3A0001010001010100010101000000002D044F
:102E4A009603C4037A04F503D303E7034C616E7552
:102E5A006368696E67205365747570004D6F746F8F
:102E6A0072207365747570207374617274696E6709
:102E7A00004D6F746F7220736574757020636F6D87
:102E8A00706C65746500536572766F20736574752E
:102E9A007000536F6E6172206D6F76696E67206382
:102EAA00656E74726500556C747261736F6E6963D6
:102EBA0020536574757000747261696E696E67205B
:102ECA006E657275616C206E6574776F726B0054F3
:102EDA007261696E696E674379636C653A20002096
:102EEA00204572726F72203D200020204772617067
:102EFA0068204E756D3A2000202047726170682064
:102F0A004572726F7231203D200020204772617035
:102F1A0068204572726F72203D2000202054726131
:102F2A00696E696E67205061747465726E3A20002A
:102F3A002020496E707574200020205461726765E4
:102F4A0074200020204F75747075742000536F6EC2
:102F5A006172206D6F76696E67206C6566740053C6
:102F6A006F6E6172206D6F76696E6720726967682D
:102F7A00740044697374616E63652028636D293A2D
:102F8A00200041727261793A2000496E7075743A74
:102F9A0020000900526F756E646564204F75747065
:102FAA0075742041203D2000526F756E646564205F
:102FBA004F75747075742042203D2000496E74204C
:102FCA004F75747075742041203D2000496E74203D
:102FDA004F75747075742042203D2000464F525739
:102FEA00415244004C454654005249474854005205
:102FFA00455645525345000D0A006E616E00696ED2
:06300A0066006F7666000F
:00000001FF
