:100000000C945D000C9485000C9485000C94850084
:100010000C9485000C9485000C9485000C9485004C
:100020000C9485000C9485000C9485000C94290494
:100030000C9485000C9485000C9485000C9485002C
:100040000C9487030C9485000C94F7030C94D10353
:100050000C9485000C9485000C9485000C9485000C
:100060000C9485000C9485000000000024002700FB
:100070002A0000000000250028002B0004040404CE
:100080000404040402020202020203030303030342
:10009000010204081020408001020408102001021F
:1000A00004081020000000080002010000030407FB
:1000B0000000000000000000EA0411241FBECFEF82
:1000C000D8E0DEBFCDBF12E0A0E0B1E0E8EFFEE097
:1000D00002C005900D92A431B107D9F722E0A4E146
:1000E000B2E001C01D92A53EB207E1F710E0CDE5F8
:1000F000D0E004C02197FE010E946F07CC35D107E4
:10010000C9F70E9448050C947A070C940000CF921E
:10011000DF92EF92FF92DC01A03282E0B8070CF090
:100120003EC0B7FD06C0A53BB1052CF0A4EBB0E086
:1001300002C0A0E0B0E08091E30228E830E069016D
:10014000C81AD10887FDD394CC0CDD1CCC0CDD1C67
:100150000D2C000CEE08FF088091E40228E532E047
:10016000281B310987FD3395220F331F220F331FC0
:10017000A901330F660B770B9A01AB012C193D09CE
:100180004E095F090E942A0724EB30E040E050E06E
:100190000E940007C20ED31EE41EF51ED6019091E8
:1001A000E2029C3098F58091E30248E850E0481B59
:1001B000510987FD5395440F551F440F551FA41730
:1001C000B5078CF08091E40228E532E0281B310964
:1001D00087FD3395220F331F220F331FAD012A17DE
:1001E0003B070CF4A90142505109440F551F2FB78A
:1001F000F894892F90E0FC01EE0FFF1F8E0F9F1FD8
:10020000FC01E354FD4F528341832FBFFF90EF90D9
:10021000DF90CF90089590E0FC01EC55FF4F2491C2
:10022000FC01E057FF4F3491FC01E458FF4FE4918B
:10023000EE2309F43CC0222339F1233091F038F445
:100240002130A9F0223001F584B58F7D12C027300E
:1002500091F02830A1F02430B9F4809180008F7D96
:1002600003C0809180008F77809380000DC084B59B
:100270008F7784BD09C08091B0008F7703C08091D3
:10028000B0008F7D8093B000F0E0EE0FFF1FEE58BE
:10029000FF4FA591B4919FB7F894611104C08C9160
:1002A0003095382302C0EC913E2B3C939FBF0895BC
:1002B000CF93DF9390E0FC01E057FF4F2491FC01C6
:1002C000E458FF4F8491882361F190E0880F991FD3
:1002D000FC01E859FF4FC591D491FC01EE58FF4F46
:1002E000A591B491611109C09FB7F89488812095B8
:1002F00082238883EC912E230BC0623061F49FB778
:10030000F8948881322F309583238883EC912E2BAB
:100310002C939FBF06C08FB7F894E8812E2B2883BB
:100320008FBFDF91CF910895CF92DF92EF92FF922E
:100330000F931F93CF93DF936C017A018B01C0E081
:10034000D0E0CE15DF0581F0D8016D918D01D60189
:10035000ED91FC910190F081E02DC6010995892B6A
:1003600011F02196EECF7E01C701DF91CF911F9151
:100370000F91FF90EF90DF90CF900895089580E067
:1003800090E00895FC01538D448D252F30E0842F9B
:1003900090E0821B930B541710F0CF9608950197AD
:1003A0000895FC01918D828D981761F0828DDF0197
:1003B000A80FB11D5D968C91928D9F5F9F73928F58
:1003C00090E008958FEF9FEF0895FC01918D828D4D
:1003D000981731F0828DE80FF11D858D90E008951A
:1003E0008FEF9FEF0895FC01918D228D892F90E072
:1003F000805C9F4F821B91098F739927089580E23B
:1004000092E00E94F30121E0892B09F420E0822F81
:100410000895FC01848DDF01A80FB11DA35ABF4FC1
:100420002C91848D90E001968F739927848FA689F3
:10043000B7892C93A089B1898C91837080648C9347
:10044000938D848D981306C00288F389E02D8081F6
:100450008F7D80830895EF92FF920F931F93CF9328
:10046000DF93EC0181E0888F9B8D8C8D981305C004
:10047000E889F989808185FD26C0F62E0B8D10E074
:100480000F5F1F4F0F731127E02E8C8DE8120CC0E9
:100490000FB607FCFACFE889F989808185FFF5CF8F
:1004A000CE010E940902F1CF8B8DFE01E80FF11DF4
:1004B000E35AFF4FF0829FB7F8940B8FEA89FB89CC
:1004C000808180620AC09FB7F894EE89FF896083BB
:1004D000E889F98980818370806480839FBF81E08F
:1004E00090E0DF91CF911F910F91FF90EF900895D1
:1004F000CF93DF93EC01888D8823C9F0EA89FB89CB
:10050000808185FD05C0A889B9898C9186FD0FC0C1
:100510000FB607FCF5CF808185FFF2CFA889B98996
:100520008C9185FFEDCFCE010E940902E7CFDF91CC
:10053000CF91089580E090E0892B29F00E94FF017F
:1005400081110C9400000895009769F0FC0101905E
:100550000020E9F73197AF01481B590BBC0180E23D
:1005600092E00C94940180E090E00895CF93DF93A3
:100570000E94A402EC0184E391E00E94A4028C0F8B
:100580009D1FDF91CF910895CF93DF9387E391E093
:100590000E94B602C8E1D1E061E088810E940B01AF
:1005A00060E08A810E940B0161E08C810E940B0156
:1005B00060E08E81DF91CF910C940B01CF93DF939C
:1005C0008FE391E00E94B602C8E1D1E060E088814B
:1005D0000E940B0160E08A810E940B0160E08C8127
:1005E0000E940B0160E08E81DF91CF910C940B0192
:1005F0008F929F92AF92BF92CF92DF92EF92FF9233
:100600000F931F93CF93DF93CDB7DEB7A1970FB6AC
:10061000F894DEBF0FBECDBF6C01990FEE08FF0846
:10062000F7FE2BC06DE280E292E00E942B028C016B
:1006300022273327A9012C193D094E095F0919A268
:10064000CE0181967C019AE0892E912CA12CB12CAF
:10065000CA01B901A50194010E943207605DF7014A
:1006600062937F01211531054105510589F7CF01BD
:100670000E94A402080F191F1EC0A701960119A20B
:100680008E010F5D1F4F8AE0C82ED12CE12CF12C7A
:10069000CA01B901A70196010E943207605DF80105
:1006A00062938F01211531054105510589F7CF016D
:1006B0000E94A4028C0184E391E00E94A402800FB6
:1006C000911FA1960FB6F894DEBF0FBECDBFDF918C
:1006D000CF911F910F91FF90EF90DF90CF90BF903F
:1006E000AF909F908F900895CF93DF9384E491E033
:1006F0000E94A402CAE0D1E08A819B810E94F80294
:100700008A819B81DF91CF9108950E9475071F9286
:100710000F920FB60F9211242F933F938F939F93B5
:10072000AF93BF9380911C0290911D02A0911E0275
:10073000B0911F0230911B0223E0230F2D3720F4CC
:100740000196A11DB11D05C026E8230F0296A11D2B
:10075000B11D20931B0280931C0290931D02A09355
:100760001E02B0931F028091170290911802A0916F
:100770001902B0911A020196A11DB11D80931702B2
:1007800090931802A0931902B0931A02BF91AF91EF
:100790009F918F913F912F910F900FBE0F901F90BF
:1007A00018951F920F920FB60F9211242F933F931B
:1007B0004F935F936F937F938F939F93AF93BF9369
:1007C000EF93FF9380E292E00E940902FF91EF9184
:1007D000BF91AF919F918F917F916F915F914F9159
:1007E0003F912F910F900FBE0F901F9018951F9261
:1007F0000F920FB60F9211242F938F939F93EF9325
:10080000FF93E0913002F09131028081E091360255
:10081000F091370282FD12C09081809139028F5F82
:100820008F7320913A02821751F0E0913902F0E083
:10083000E05EFD4F958F8093390201C08081FF916A
:10084000EF919F918F912F910F900FBE0F901F905E
:1008500018951F920F920FB60F9211242F933F936A
:100860004F935F936F937F938F939F93AF93BF93B8
:10087000EF93FF938091140287FF05C010928500CB
:10088000109284001BC020911402022E000C330B26
:100890008091E10290E02817390784F480911402D6
:1008A000082E000C990BFC01EE0FFF1F8E0F9F1FEF
:1008B000FC01E354FD4F808186FD15C08091140238
:1008C0008F5F8093140220911402022E000C330BD0
:1008D0008091E10290E028173907C4F48091140256
:1008E0008C3064F113C080911402082E000C990B17
:1008F000FC01EE0FFF1F8E0F9F1FFC01E354FD4F05
:10090000808160E08F730E940B01D8CF80918400BA
:1009100090918500049680349C4918F480E49CE909
:1009200005C0809184009091850004969093890081
:10093000809388008FEF809314023BC02091840045
:100940003091850080911402082E000C990BFC0157
:10095000EE0FFF1F8E0F9F1FFC01E354FD4F81819F
:100960009281820F931F90938900809388008091D9
:100970001402082E000C990BFC01EE0FFF1F8E0FC6
:100980009F1FFC01E354FD4F808186FF12C08091C0
:100990001402082E000C990BFC01EE0FFF1F8E0FA6
:1009A0009F1FFC01E354FD4F808161E08F730E9423
:1009B0000B01FF91EF91BF91AF919F918F917F912B
:1009C0006F915F914F913F912F910F900FBE0F90BC
:1009D0001F901895109223021092220288EE93E045
:1009E000A0E0B0E08093240290932502A093260219
:1009F000B093270286E291E0909321028093200237
:100A000085EC90E090932D0280932C0284EC90E092
:100A100090932F0280932E0280EC90E0909331020D
:100A20008093300281EC90E0909333028093320205
:100A300082EC90E0909335028093340286EC90E053
:100A400090933702809336021092390210923A0244
:100A500010923B0210923C028091E1028C30A0F493
:100A600091E0980F9093E1028093E20290E0FC0104
:100A7000EE0FFF1F8E0F9F1FFC01E354FD4F88EB0D
:100A80009BE09283818308958FEF8093E202089523
:100A9000789484B5826084BD84B5816084BD85B559
:100AA000826085BD85B5816085BD80916E00816065
:100AB00080936E001092810080918100826080930B
:100AC000810080918100816080938100809180000D
:100AD0008160809380008091B10084608093B10038
:100AE0008091B00081608093B00080917A00846032
:100AF00080937A0080917A00826080937A0080915E
:100B00007A00816080937A0080917A008068809377
:100B10007A001092C10083E591E00E94B602E09154
:100B20003002F091310282E08083E0912C02F0915A
:100B30002D021082E0912E02F0912F028FEC808323
:100B400010923802E0913402F091350286E0808301
:100B5000E0913202F0913302808180618083E091E4
:100B60003202F0913302808188608083E09132020A
:100B7000F0913302808180688083E0913202F091AD
:100B8000330280818F7D808383E691E00E94B602EC
:100B900061E0809118010E94580161E080911A0182
:100BA0000E94580161E080911C010E94580161E09F
:100BB00080911E010E94580188E791E00E94B602D0
:100BC0008DE891E00E94B6028AE590E00E948700DD
:100BD00089E991E00E94B602C09101018091E20290
:100BE0008C3008F052C061E08C2F0E945801809137
:100BF000E202E82FF0E09F01220F331FE20FF31F04
:100C0000E354FD4FCF739081907CC92BC083109229
:100C1000E3021092E4026CE00E9463079CE0899F6B
:100C2000B001112440E050E09B01240F351FF90171
:100C3000EE0FFF1F2E0F3F1FF901E354FD4F908170
:100C400096FD16C04F5F5F4F4C30510569F781111B
:100C50000FC01092800082E0809381001092850086
:100C600010928400B19A80916F00826080936F002F
:100C7000E091E202F0E0CF01880F991FE80FF91F21
:100C8000E354FD4F8081806480838DEA91E00E946F
:100C9000B60261E0809116010E94580160E08091E7
:100CA00014010E9458010E94C40211E0C1E0D0E08A
:100CB0008FB7F894C0901C02D0901D02E0901E02E5
:100CC000F0901F028FBF8091030190910401092EC3
:100CD000000CAA0BBB0B40910501509106016091DD
:100CE000070170910801840F951FA61FB71FC81632
:100CF000D906EA06FB0628F18093050190930601C8
:100D0000A0930701B0930801C230D10551F0C33060
:100D1000D10571F08AE590E00E94870089E991E0B1
:100D20000DC084EB90E00E9487008EEB91E006C03E
:100D300080E090E00E94870081ED91E00E94B60281
:100D4000219610920901C430D1050CF4B1CF8FB7B0
:100D5000F89440911C0250911D0260911E02709106
:100D60001F028FBF83EE91E00E94B6020E947403BF
:100D700021E030E0459714F420E030E0C9010E9402
:100D8000F80284E491E00E94A4020E9474030E948D
:100D9000F8020E947403459764F50E94DE021092E7
:100DA00000018FB7F89440911C0250911D02609190
:100DB0001E0270911F028FBF809115029091160242
:100DC0008C509E4F6C01092E000CEE08FF084C154C
:100DD0005D056E057F0530F0909316028093150235
:100DE000109300018FEE91E00E94B6020E949A02D9
:100DF0005DCF80910001882381F20E94C402D1CF8F
:100E0000052E97FB1EF400940E94170757FD07D08C
:100E10000E94320707FC03D04EF40C94170750953C
:100E20004095309521953F4F4F4F5F4F08959095D6
:100E30008095709561957F4F8F4F9F4F08950E94C9
:100E40005407A59F900DB49F900DA49F800D911DF8
:100E500011240895B7FF0C941F070E941F07821BDF
:100E6000930B0895A1E21A2EAA1BBB1BFD010DC016
:100E7000AA1FBB1FEE1FFF1FA217B307E407F5074A
:100E800020F0A21BB30BE40BF50B661F771F881F26
:100E9000991F1A9469F760957095809590959B01BC
:100EA000AC01BD01CF010895A29FB001B39FC00165
:100EB000A39F700D811D1124911DB29F700D811D86
:100EC0001124911D0895991B79E004C0991F96176C
:100ED00008F0961B881F7A95C9F780950895EE0F44
:100EE000FF1F0590F491E02D099481E090E0F894C3
:080EF0000C947A07F894FFCF7F
:100EF800010C00E803000000000000000A00F401F3
:100F08000000000013001200080009000A000B008E
:100F1800FF00000000002B029401C2017802F301D7
:100F2800D101E5010D0A00464F5257415244005382
:100F3800544F50004765742044697374616E63654B
:100F48003A20004C616E756368696E67205365745A
:100F58007570004D6F746F722073657475702073AF
:100F680074617274696E67004D6F746F7220736577
:100F780074757020636F6D706C657465005365726D
:100F8800766F20736574757000536F6E6172206D93
:100F98006F76696E672063656E74726500556C7450
:100FA8007261736F6E696320536574757000536F57
:100FB8006E6172206D6F76696E67207269676874FA
:100FC80000536F6E6172206D6F76696E67206C6575
:100FD800667400497320436C6561723F3A20007E55
:100FE8007E7E7E7E7E7E7E7E7E7E7E7E7E7E7E7E19
:100FF8007E7E7E7E7E7E7E7E7E7E7E7E7E7E7E7E09
:041008007E7E0000E8
:00000001FF
