:100000000C9462000C948A000C948A000C948A0070
:100010000C948A000C948A000C948A000C948A0038
:100020000C948A000C948A000C948A000C94790336
:100030000C948A000C948A000C948A000C948A0018
:100040000C94D7020C948A000C9447030C9421035F
:100050000C948A000C948A000C948A000C948A00F8
:100060000C948A000C948A000000000023002600F3
:10007000290000000000240027002A0000000000E2
:10008000250028002B0004040404040404040202D4
:100090000202020203030303030301020408102007
:1000A0004080010204081020010204081020000012
:1000B0000008000201000003040700000000000027
:1000C00000007F0411241FBECFEFD8E0DEBFCDBFFC
:1000D00011E0A0E0B1E0E6EBF5E102C005900D9281
:1000E000A43FB107D9F722E0A4EFB1E001C01D920F
:1000F000AA3DB207E1F710E0C2E6D0E004C02197C4
:10010000FE010E94CE0AC136D107C9F70E9416052A
:100110000C94D90A0C940000CF92DF92EF92FF92D8
:10012000DC01A03282E0B8070CF03EC0B7FD06C08B
:10013000A53BB1052CF0A4EBB0E002C0A0E0B0E01C
:100140008091C10228E830E06901C81AD10887FD12
:10015000D394CC0CDD1CCC0CDD1C0D2C000CEE085B
:10016000FF088091C20228E532E0281B310987FD93
:100170003395220F331F220F331FA901330F660B54
:10018000770B9A01AB012C193D094E095F090E94BA
:10019000580924EB30E040E050E00E942E09C20EE6
:1001A000D31EE41EF51ED6019091C0029C3098F536
:1001B0008091C10248E850E0481B510987FD5395E2
:1001C000440F551F440F551FA417B5078CF080919D
:1001D000C20228E532E0281B310987FD3395220F42
:1001E000331F220F331FAD012A173B070CF4A9015F
:1001F00042505109440F551F2FB7F894892F90E0B2
:10020000FC01EE0FFF1F8E0F9F1FFC01E556FD4FF7
:10021000528341832FBFFF90EF90DF90CF900895DE
:1002200090E0FC01E255FF4F2491FC01E656FF4FA0
:100230003491FC01EA57FF4FE491EE2309F43CC0EE
:10024000222339F1233091F038F42130A9F0223003
:1002500001F584B58F7D12C0273091F02830A1F0D0
:100260002430B9F4809180008F7D03C0809180009C
:100270008F77809380000DC084B58F7784BD09C0CF
:100280008091B0008F7703C08091B0008F7D809304
:10029000B000F0E0EE0FFF1FE458FF4FA591B491BE
:1002A0009FB7F894611104C08C913095382302C037
:1002B000EC913E2B3C939FBF0895CF93DF9390E04A
:1002C000FC01E656FF4F2491FC01EA57FF4F849151
:1002D000882361F190E0880F991FFC01EE58FF4FD1
:1002E000C591D491FC01E458FF4FA591B4916111DF
:1002F00009C09FB7F8948881209582238883EC9168
:100300002E230BC0623061F49FB7F8948881322F9E
:10031000309583238883EC912E2B2C939FBF06C0AE
:100320008FB7F894E8812E2B28838FBFDF91CF9170
:1003300008952FB7F8946091FA017091FB018091B4
:10034000FC019091FD012FBF0895CF92DF92EF92B3
:10035000FF920F931F93CF93DF936C017A018B0170
:10036000C0E0D0E0CE15DF0581F0D8016D918D01A0
:10037000D601ED91FC910190F081E02DC601099527
:10038000892B11F02196EECF7E01C701DF91CF912D
:100390001F910F91FF90EF90DF90CF9008950895F7
:1003A00080E090E00895FC01538D448D252F30E0CE
:1003B000842F90E0821B930B541710F0CF96089572
:1003C00001970895FC01918D828D981761F0828DBF
:1003D000DF01A80FB11D5D968C91928D9F5F9F7379
:1003E000928F90E008958FEF9FEF0895FC01918D1B
:1003F000828D981731F0828DE80FF11D858D90E088
:1004000008958FEF9FEF0895FC01918D228D892F24
:1004100090E0805C9F4F821B91098F73992708950C
:100420008EEF91E00E94040221E0892B09F420E084
:10043000822F0895FC01848DDF01A80FB11DA35AFE
:10044000BF4F2C91848D90E001968F739927848FF4
:10045000A689B7892C93A089B1898C918370806417
:100460008C93938D848D981306C00288F389E02DB8
:1004700080818F7D80830895EF92FF920F931F9369
:10048000CF93DF93EC0181E0888F9B8D8C8D981347
:1004900005C0E889F989808185FD26C0F62E0B8D7F
:1004A00010E00F5F1F4F0F731127E02E8C8DE812A5
:1004B0000CC00FB607FCFACFE889F989808185FF67
:1004C000F5CFCE010E941A02F1CF8B8DFE01E80F0D
:1004D000F11DE35AFF4FF0829FB7F8940B8FEA8922
:1004E000FB89808180620AC09FB7F894EE89FF89FA
:1004F0006083E889F98980818370806480839FBFED
:1005000081E090E0DF91CF911F910F91FF90EF90EC
:100510000895CF93DF93EC01888D8823C9F0EA8991
:10052000FB89808185FD05C0A889B9898C9186FDEC
:100530000FC00FB607FCF5CF808185FFF2CFA889E9
:10054000B9898C9185FFEDCFCE010E941A02E7CFC9
:10055000DF91CF91089580E090E0892B29F00E94EF
:10056000100281110C9400000895009769F0FC01BD
:1005700001900020E9F73197AF01481B590BBC01EE
:100580008EEF91E00C94A50180E090E00895CF9368
:10059000DF930E94B502EC0180E391E00E94B50276
:1005A0008C0F9D1FDF91CF9108950E94D40A1F9256
:1005B0000F920FB60F9211242F933F938F939F9317
:1005C000AF93BF938091FA019091FB01A091FC0140
:1005D000B091FD013091F90123E0230F2D3720F474
:1005E0000196A11DB11D05C026E8230F0296A11D8D
:1005F000B11D2093F9018093FA019093FB01A09320
:10060000FC01B093FD018091F5019091F601A0915C
:10061000F701B091F8010196A11DB11D8093F5017C
:100620009093F601A093F701B093F801BF91AF91B9
:100630009F918F913F912F910F900FBE0F901F9020
:1006400018951F920F920FB60F9211242F933F937C
:100650004F935F936F937F938F939F93AF93BF93CA
:10066000EF93FF938EEF91E00E941A02FF91EF91BA
:10067000BF91AF919F918F917F916F915F914F91BA
:100680003F912F910F900FBE0F901F9018951F92C2
:100690000F920FB60F9211242F938F939F93EF9386
:1006A000FF93E0910E02F0910F028081E09114021D
:1006B000F091150282FD12C09081809117028F5F28
:1006C0008F7320911802821751F0E0911702F0E029
:1006D000E250FE4F958F8093170201C08081FF91F9
:1006E000EF919F918F912F910F900FBE0F901F90C0
:1006F00018951F920F920FB60F9211242F933F93CC
:100700004F935F936F937F938F939F93AF93BF9319
:10071000EF93FF938091F40187FF05C0109285004D
:10072000109284001BC02091F401022E000C330BA8
:100730008091BF0290E02817390784F48091F4017A
:10074000082E000C990BFC01EE0FFF1F8E0F9F1F50
:10075000FC01E556FD4F808186FD15C08091F401B6
:100760008F5F8093F4012091F401022E000C330B73
:100770008091BF0290E028173907C4F48091F401FA
:100780008C3064F113C08091F401082E000C990B99
:10079000FC01EE0FFF1F8E0F9F1FFC01E556FD4F62
:1007A000808160E08F730E941001D8CF8091840017
:1007B00090918500049680349C4918F480E49CE96B
:1007C00005C08091840090918500049690938900E3
:1007D000809388008FEF8093F4013BC020918400C8
:1007E000309185008091F401082E000C990BFC01DA
:1007F000EE0FFF1F8E0F9F1FFC01E556FD4F8181FD
:100800009281820F931F909389008093880080913A
:10081000F401082E000C990BFC01EE0FFF1F8E0F48
:100820009F1FFC01E556FD4F808186FF12C080911D
:10083000F401082E000C990BFC01EE0FFF1F8E0F28
:100840009F1FFC01E556FD4F808161E08F730E9480
:100850001001FF91EF91BF91AF919F918F917F9187
:100860006F915F914F913F912F910F900FBE0F901D
:100870001F901895CF92DF92EF92FF920F931F93E4
:10088000E82FF92F05C0015011092109310961F143
:10089000908196239417B9F305C0015011092109DD
:1008A000310911F1908196239413F7CFC12CD12CEB
:1008B000E12CF12C0AC08FEFC81AD80AE80AF80A0E
:1008C0000C151D052E053F0579F0808186238417C0
:1008D00091F36C2D7D2D8E2D9F2D1F910F91FF90EB
:1008E000EF90DF90CF90089560E070E080E090E0BE
:1008F0001F910F91FF90EF90DF90CF90089510928D
:1009000001021092000288EE93E0A0E0B0E0809334
:10091000020290930302A0930402B093050282E2C4
:1009200091E09093FF018093FE0185EC90E090931D
:100930000B0280930A0284EC90E090930D02809366
:100940000C0280EC90E090930F0280930E0281ECF9
:1009500090E0909311028093100282EC90E09093CB
:1009600013028093120286EC90E09093150280931C
:10097000140210921702109218021092190210928B
:100980001A028091BF028C30A0F491E0980F9093EE
:10099000BF028093C00290E0FC01EE0FFF1F8E0F9C
:1009A0009F1FFC01E556FD4F88EB9BE092838183FE
:1009B00003C08FEF8093C002E3ECF2E087E1DF0138
:1009C0001D928A95E9F78CE090E09093C4028093A1
:1009D000C30288EE93E09093C6028093C502109202
:1009E000C7021092C8021092C9021092CA02109255
:1009F000CB021092CC021092CD021092CE0281E076
:100A000090E09093D0028093CF029093D502809390
:100A1000D40282E090E09093D7028093D60283E0E4
:100A200090E09093D9028093D8020895CF93DF93FA
:100A3000CDB7DEB7A1970FB6F894DEBF0FBECDBF1E
:100A4000789484B5826084BD84B5816084BD85B5A9
:100A5000826085BD85B5816085BD80916E008160B5
:100A600080936E001092810080918100826080935B
:100A7000810080918100816080938100809180005D
:100A80008160809380008091B10084608093B10088
:100A90008091B00081608093B00080917A00846082
:100AA00080937A0080917A00826080937A008091AE
:100AB0007A00816080937A0080917A0080688093C8
:100AC0007A001092C10083E391E00E94C702E09196
:100AD0000E02F0910F0282E08083E0910A02F09111
:100AE0000B021082E0910C02F0910D028FEC8083DA
:100AF00010921602E0911202F091130286E08083B8
:100B0000E0911002F0911102808180618083E09178
:100B10001002F0911102808188608083E0911002C0
:100B2000F0911102808180688083E0911002F09141
:100B3000110280818F7D808383E491E00E94C7024F
:100B400061E0809100010E945D0161E080910201FD
:100B50000E945D0161E0809104010E945D0161E0FD
:100B6000809106010E945D0188E591E00E94C70224
:100B70008DE691E00E94C7028AE590E00E948C0019
:100B80008091D4029091D5029093D2028093D102A9
:100B900089E791E00E94C7021091C3028091C002D0
:100BA0008C3008F052C061E0812F0E945D0180917D
:100BB000C002E82FF0E09F01220F331FE20FF31F66
:100BC000E556FD4F1F739081907C192B1083109276
:100BD000C1021092C2026CE00E94C20A9CE0899F8E
:100BE000B001112440E050E09B01240F351FF901B2
:100BF000EE0FFF1F2E0F3F1FF901E556FD4F9081AD
:100C000096FD16C04F5F5F4F4C30510569F781115B
:100C10000FC01092800082E08093810010928500C6
:100C200010928400B19A80916F00826080936F006F
:100C3000E091C002F0E0CF01880F991FE80FF91F83
:100C4000E556FD4F8081806480838DE891E00E94AD
:100C5000C70261E080911C010E945D0160E080910B
:100C60001A010E945D018EE991E00E94C70260E0D6
:100C7000809100010E94100160E0809102010E94B9
:100C8000100160E0809104010E94100160E08091F9
:100C900006010E941001109209011092080193E0D0
:100CA000C92ED12CEE24E394F12C33E2232E312CE7
:100CB0004AE0842E912CA12CB12C8091CF029091EE
:100CC000D0028230910509F45AC08330910509F4AD
:100CD000A7C0019709F0F3C00E9499016093C70271
:100CE0007093C8028093C9029093CA024091C702D0
:100CF0005091C8026091C9027091CA028091CB02E2
:100D00009091CC02A091CD02B091CE02481B590B1C
:100D10006A0B7B0B8091C5029091C602092E000CD4
:100D2000AA0BBB0B481759076A077B0708F4C7C013
:100D30008AE590E00E948C008091D4029091D502C7
:100D40009093D2028093D10289E791E00E94C7027A
:100D50008091C7029091C802A091C902B091CA02C5
:100D60008093CB029093CC02A093CD02B093CE029D
:100D7000E2E0F0E0F093D002E093CF02A0C00E9446
:100D800099016093C7027093C8028093C90290933F
:100D9000CA024091C7025091C8026091C902709185
:100DA000CA028091CB029091CC02A091CD02B09169
:100DB000CE02481B590B6A0B7B0B8091C5029091A8
:100DC000C602092E000CAA0BBB0B481759076A076D
:100DD0007B0708F474C080E090E00E948C00809152
:100DE000D6029091D7029093D2028093D10283EAE7
:100DF00091E00E94C7028091C7029091C802A09121
:100E0000C902B091CA028093CB029093CC02A09306
:100E1000CD02B093CE02D092D002C092CF024FC08A
:100E20000E9499016093C7027093C8028093C9021F
:100E30009093CA024091C7025091C8026091C902C2
:100E40007091CA028091CB029091CC02A091CD0208
:100E5000B091CE02481B590B6A0B7B0B8091C502E7
:100E60009091C602092E000CAA0BBB0B481759071C
:100E70006A077B0720F184EB90E00E948C00809150
:100E8000D8029091D9029093D2028093D10285EB3F
:100E900091E00E94C7028091C7029091C802A09180
:100EA000C902B091CA028093CB029093CC02A09366
:100EB000CD02B093CE02F092D002E092CF020E9417
:100EC00099014090160150901701609018017090A0
:100ED0001901AB01BC0144195509660977098091D4
:100EE000140190911501092E000CAA0BBB0B481799
:100EF00059076A077B0708F4C0C00E949901209136
:100F00001201309113012901330F66087708641527
:100F100075058605970508F4B0C0F0921101E092BE
:100F200010018091140190911501092E000CAA0B5B
:100F3000BB0B4091160150911701609118017091FF
:100F40001901840F951FA61FB71F80931601909358
:100F50001701A0931801B093190160E080911C0162
:100F60000E941001C6010197F1F761E080911C0118
:100F70000E941001C1010197F1F760E080911C010E
:100F80000E94100180911A0190911B019927FC0188
:100F9000E656FF4F6491FC01EA57FF4FE491F0E001
:100FA000EE0FFF1FE859FF4F8591949100E412E482
:100FB0002FE030E0462F0E943A046115710581054B
:100FC000910509F4D4C0DC01CB010196A11DB11D2E
:100FD000BF7090930D0180930C01BC01990F880B99
:100FE000990B0E94C90928E23EE74CE05DE30E94AC
:100FF0002D0A20E030E040E05FE30E942D0A0E94CD
:10100000910970930F0160930E0188EC91E00E94AA
:10101000B50240900E0150900F01052C000C66089F
:10102000770877FE8EC06DE28EEF91E00E943C0261
:1010300022273327A901241935094609570919A27E
:10104000CE0181963C01CA01B901A50194010E941B
:101050006009605DF30162933F012115310541058F
:10106000510589F7C3010E94B50280E391E00E9417
:10107000B502F0921101E09210018091D10290919D
:10108000D2022091D6023091D7028217930739F409
:1010900020910E0130910F012F30310554F1209134
:1010A000D4023091D5028217930741F440910E018A
:1010B00050910F014F3051050CF05DC04091D802A6
:1010C0005091D9028417950749F440910E0150912F
:1010D0000F014F3051050CF473C030C082179307D5
:1010E00069F580910E0190910F010F970CF490C05B
:1010F00025C020910801309109012430310579F291
:1011000088ED91E00E94C70260E0809100010E949A
:10111000100160E0809102010E94100161E0809165
:1011200004010E94100160E0809106010E941001FC
:1011300084E090E090930901809308010E94AB0243
:10114000BCCDA301920119A2CE0181963C01CA0136
:10115000B901A50194010E946009605DF3016293E9
:101160003F01211531054105510589F77BCF80E00D
:1011700090E0DC012ECF40910801509109014130EF
:10118000510509F49BCF8DED91E00E94C70261E00B
:10119000809100010E94100160E0809102010E9494
:1011A000100161E0809104010E94100160E08091D3
:1011B00006010E941001F0920901E0920801BECFE1
:1011C000409108015091090143305105E9F085EE45
:1011D00091E00E94C70261E0809100010E9410012D
:1011E00060E0809102010E94100160E080910401A2
:1011F0000E94100160E0809106010E941001D092CF
:101200000901C09208019ACF8217930709F096CF7F
:101210008091080190910901029709F48FCF8BEE1C
:1012200091E00E94C70260E0809100010E941001DD
:1012300061E0809102010E94100160E08091040150
:101240000E94100161E0809106010E941001E2E01D
:10125000F0E0F0930901E093080170CF052E97FBB1
:101260001EF400940E94450957FD07D00E946009B2
:1012700007FC03D04EF40C944509509540953095E9
:1012800021953F4F4F4F5F4F0895909580957095F2
:1012900061957F4F8F4F9F4F08950E948209A59FB0
:1012A000900DB49F900DA49F800D911D1124089561
:1012B000B7FF0C944D090E944D09821B930B0895B2
:1012C000A1E21A2EAA1BBB1BFD010DC0AA1FBB1F4A
:1012D000EE1FFF1FA217B307E407F50720F0A21BBC
:1012E000B30BE40BF50B661F771F881F991F1A9429
:1012F00069F760957095809590959B01AC01BD0153
:10130000CF010895A29FB001B39FC001A39F700DAC
:10131000811D1124911DB29F700D811D1124911DFD
:1013200008950E9498096894B1110C94270A0895B1
:101330000E940C0A88F09F5798F0B92F9927B7514F
:10134000B0F0E1F0660F771F881F991F1AF0BA9569
:10135000C9F714C0B13091F00E94260AB1E0089597
:101360000C94260A672F782F8827B85F39F0B93F89
:10137000CCF3869577956795B395D9F73EF490951C
:101380008095709561957F4F8F4F9F4F0895E8949A
:1013900009C097FB3EF490958095709561957F4FBD
:1013A0008F4F9F4F9923A9F0F92F96E9BB2793956B
:1013B000F695879577956795B795F111F8CFFAF47B
:1013C000BB0F11F460FF1BC06F5F7F4F8F4F9F4FAC
:1013D00016C0882311F096E911C0772321F09EE80A
:1013E000872F762F05C0662371F096E8862F70E070
:1013F00060E02AF09A95660F771F881FDAF7880F4A
:101400009695879597F9089557FD9058440F551F65
:1014100059F05F3F71F04795880F97FB991F61F076
:101420009F3F79F087950895121613061406551FED
:10143000F2CF4695F1DF08C0161617061806991F59
:10144000F1CF86957105610508940895E894BB274E
:1014500066277727CB0197F908950E94400A0C94DC
:10146000B10A0E94A30A38F00E94AA0A20F095232C
:1014700011F00C949A0A0C94A00A11240C94270AD7
:101480000E94040A70F3959FC1F3950F50E0551F19
:10149000629FF001729FBB27F00DB11D639FAA27C9
:1014A000F00DB11DAA1F649F6627B00DA11D661F18
:1014B000829F2227B00DA11D621F739FB00DA11D39
:1014C000621F839FA00D611D221F749F3327A00DF3
:1014D000611D231F849F600D211D822F762F6A2F8F
:1014E00011249F5750409AF0F1F088234AF0EE0FF4
:1014F000FF1FBB1F661F771F881F91505040A9F721
:101500009E3F510580F00C949A0A0C94270A5F3F85
:10151000E4F3983ED4F3869577956795B795F7955C
:10152000E7959F5FC1F7FE2B880F911D96958795D4
:1015300097F9089597F99F6780E870E060E0089553
:101540009FEF80EC089500240A94161617061806DB
:101550000906089500240A941216130614060506B7
:101560000895092E0394000C11F4882352F0BB0F48
:1015700040F4BF2B11F460FF04C06F5F7F4F8F4FAB
:101580009F4F0895991B79E004C0991F961708F0A2
:10159000961B881F7A95C9F780950895EE0FFF1F57
:1015A0000590F491E02D099481E090E0F8940C947A
:0615B000D90AF894FFCFF8
:1015B600080009000A000B000000FF000000000000
:1015C6000000E803F4010000000013001200000010
:1015D60000003C02A501D30189020402E201F601E2
:1015E6000D0A004C616E756368696E6720536574F9
:1015F6007570004D6F746F7220736574757020730B
:1016060074617274696E67004D6F746F72207365D2
:1016160074757020636F6D706C65746500536572C8
:10162600766F20736574757000536F6E6172206DEE
:101636006F76696E672063656E74726500556C74AB
:101646007261736F6E6963205365747570005354CD
:101656004F5000536F6E6172206D6F76696E672012
:101666006C65667400536F6E6172206D6F76696E7D
:10167600672072696768740044697374616E636594
:101686002028636D293A20004C45465400464F52A7
:101696005741524400524947485400524556455214
:0416A60053450000A8
:00000001FF
