:100000000C9462000C948A000C948A000C948A0070
:100010000C948A000C948A000C948A000C948A0038
:100020000C948A000C948A000C948A000C94AE0301
:100030000C948A000C948A000C948A000C948A0018
:100040000C940C030C948A000C947C030C945603BF
:100050000C948A000C948A000C948A000C948A00F8
:100060000C948A000C948A000000000023002600F3
:10007000290000000000240027002A0000000000E2
:10008000250028002B0004040404040404040202D4
:100090000202020203030303030301020408102007
:1000A0004080010204081020010204081020000012
:1000B0000008000201000003040700000000000027
:1000C0000000B40411241FBECFEFD8E0DEBFCDBFC7
:1000D00011E0A0E0B1E0E0EEF2E102C005900D9287
:1000E000A83DB107D9F722E0A8EDB1E001C01D920B
:1000F000AC3CB207E1F710E0C2E6D0E004C02197C3
:10010000FE010E946309C136D107C9F70E94470565
:100110000C946E090C940000CF92DF92EF92FF9244
:10012000DC01A03282E0B8070CF03EC0B7FD06C08B
:10013000A53BB1052CF0A4EBB0E002C0A0E0B0E01C
:100140008091B50228E830E06901C81AD10887FD1E
:10015000D394CC0CDD1CCC0CDD1C0D2C000CEE085B
:10016000FF088091B60228E532E0281B310987FD9F
:100170003395220F331F220F331FA901330F660B54
:10018000770B9A01AB012C193D094E095F090E94BA
:10019000ED0724EB30E040E050E00E94C307C20EC0
:1001A000D31EE41EF51ED6019091B4029C3098F542
:1001B0008091B50248E850E0481B510987FD5395EE
:1001C000440F551F440F551FA417B5078CF080919D
:1001D000B60228E532E0281B310987FD3395220F4E
:1001E000331F220F331FAD012A173B070CF4A9015F
:1001F00042505109440F551F2FB7F894892F90E0B2
:10020000FC01EE0FFF1F8E0F9F1FFC01E157FD4FFA
:10021000528341832FBFFF90EF90DF90CF900895DE
:1002200090E0FC01E255FF4F2491FC01E656FF4FA0
:100230003491FC01EA57FF4FE491EE2309F43CC0EE
:10024000222339F1233091F038F42130A9F0223003
:1002500001F584B58F7D12C0273091F02830A1F0D0
:100260002430B9F4809180008F7D03C0809180009C
:100270008F77809380000DC084B58F7784BD09C0CF
:100280008091B0008F7703C08091B0008F7D809304
:10029000B000F0E0EE0FFF1FE458FF4FA591B491BE
:1002A0009FB7F894611104C08C913095382302C037
:1002B000EC913E2B3C939FBF0895CF93DF9390E04A
:1002C000FC01E656FF4F2491FC01EA57FF4F849151
:1002D000882361F190E0880F991FFC01EE58FF4FD1
:1002E000C591D491FC01E458FF4FA591B4916111DF
:1002F00009C09FB7F8948881209582238883EC9168
:100300002E230BC0623061F49FB7F8948881322F9E
:10031000309583238883EC912E2B2C939FBF06C0AE
:100320008FB7F894E8812E2B28838FBFDF91CF9170
:100330000895CF92DF92EF92FF920F931F93CF9386
:10034000DF936C017A018B01C0E0D0E0CE15DF05B0
:1003500081F0D8016D918D01D601ED91FC91019054
:10036000F081E02DC6010995892B11F02196EECF81
:100370007E01C701DF91CF911F910F91FF90EF9008
:10038000DF90CF900895089580E090E00895FC01FB
:10039000538D448D252F30E0842F90E0821B930BEA
:1003A000541710F0CF96089501970895FC01918D90
:1003B000828D981761F0828DDF01A80FB11D5D96C7
:1003C0008C91928D9F5F9F73928F90E008958FEF35
:1003D0009FEF0895FC01918D828D981731F0828DE9
:1003E000E80FF11D858D90E008958FEF9FEF089540
:1003F000FC01918D228D892F90E0805C9F4F821BA4
:1004000091098F739927089582EF91E00E94F80176
:1004100021E0892B09F420E0822F0895FC01848DCE
:10042000DF01A80FB11DA35ABF4F2C91848D90E01E
:1004300001968F739927848FA689B7892C93A089F9
:10044000B1898C91837080648C93938D848D981383
:1004500006C00288F389E02D80818F7D8083089516
:10046000EF92FF920F931F93CF93DF93EC0181E004
:10047000888F9B8D8C8D981305C0E889F9898081C0
:1004800085FD26C0F62E0B8D10E00F5F1F4F0F73FA
:100490001127E02E8C8DE8120CC00FB607FCFACFA6
:1004A000E889F989808185FFF5CFCE010E940E028F
:1004B000F1CF8B8DFE01E80FF11DE35AFF4FF08263
:1004C0009FB7F8940B8FEA89FB89808180620AC00C
:1004D0009FB7F894EE89FF896083E889F989808164
:1004E0008370806480839FBF81E090E0DF91CF9133
:1004F0001F910F91FF90EF900895CF93DF93EC0140
:10050000888D8823C9F0EA89FB89808185FD05C033
:10051000A889B9898C9186FD0FC00FB607FCF5CF6D
:10052000808185FFF2CFA889B9898C9185FFEDCFB5
:10053000CE010E940E02E7CFDF91CF91089580E0B7
:1005400090E0892B29F00E94040281110C94000094
:100550000895009769F0FC0101900020E9F73197B8
:10056000AF01481B590BBC0182EF91E00C9499013B
:1005700080E090E00895CF93DF930E94A902EC0100
:1005800080E391E00E94A9028C0F9D1FDF91CF9123
:1005900008958F929F92AF92BF920F931F93CF9324
:1005A000DF93CDB7DEB7A1970FB6F894DEBF0FBECD
:1005B000CDBF19A2423008F44AE08E010F5D1F4FF3
:1005C000842E912CA12CB12CA50194010E94F50739
:1005D000E62FB901CA0101501109EA3014F4E05DB7
:1005E00001C0E95CD801EC93232B242B252B61F768
:1005F000C8010E94A902A1960FB6F894DEBF0FBEF3
:10060000CDBFDF91CF911F910F91BF90AF909F9081
:100610008F9008950E9469091F920F920FB60F9252
:1006200011242F933F938F939F93AF93BF93809108
:10063000EE019091EF01A091F001B091F1013091A4
:10064000ED0123E0230F2D3720F40196A11DB11DEC
:1006500005C026E8230F0296A11DB11D2093ED01D0
:100660008093EE019093EF01A093F001B093F1011C
:100670008091E9019091EA01A091EB01B091EC0128
:100680000196A11DB11D8093E9019093EA01A09309
:10069000EB01B093EC01BF91AF919F918F913F918E
:1006A0002F910F900FBE0F901F9018951F920F92D1
:1006B0000FB60F9211242F933F934F935F936F9335
:1006C0007F938F939F93AF93BF93EF93FF9382EFAB
:1006D00091E00E940E02FF91EF91BF91AF919F9127
:1006E0008F917F916F915F914F913F912F910F90DB
:1006F0000FBE0F901F9018951F920F920FB60F927A
:1007000011242F938F939F93EF93FF93E091020215
:10071000F09103028081E0910802F091090282FDCC
:1007200012C0908180910B028F5F8F7320910C0219
:10073000821751F0E0910B02F0E0EE50FE4F958FE2
:1007400080930B0201C08081FF91EF919F918F9167
:100750002F910F900FBE0F901F9018951F920F9220
:100760000FB60F9211242F933F934F935F936F9384
:100770007F938F939F93AF93BF93EF93FF9380915A
:10078000D80187FF05C010928500109284001BC01D
:100790002091D801022E000C330B8091B30290E01F
:1007A0002817390784F48091D801082E000C990B82
:1007B000FC01EE0FFF1F8E0F9F1FFC01E157FD4F45
:1007C000808186FD15C08091D8018F5F8093D8010C
:1007D0002091D801022E000C330B8091B30290E0DF
:1007E00028173907C4F48091D8018C3064F113C004
:1007F0008091D801082E000C990BFC01EE0FFF1F11
:100800008E0F9F1FFC01E157FD4F808160E08F73C9
:100810000E941001D8CF80918400909185000496A9
:1008200080349C4918F480E49CE905C080918400E0
:1008300090918500049690938900809388008FEFB3
:100840008093D8013BC02091840030918500809135
:10085000D801082E000C990BFC01EE0FFF1F8E0F24
:100860009F1FFC01E157FD4F81819281820F931FF1
:1008700090938900809388008091D801082E000C05
:10088000990BFC01EE0FFF1F8E0F9F1FFC01E1571C
:10089000FD4F808186FF12C08091D801082E000C88
:1008A000990BFC01EE0FFF1F8E0F9F1FFC01E157FC
:1008B000FD4F808161E08F730E941001FF91EF91E5
:1008C000BF91AF919F918F917F916F915F914F9168
:1008D0003F912F910F900FBE0F901F901895CF92C0
:1008E000DF92EF92FF920F931F93E82FF92F05C02D
:1008F000015011092109310961F190819623941762
:10090000B9F305C0015011092109310911F1908194
:1009100096239413F7CFC12CD12CE12CF12C0AC0D3
:100920008FEFC81AD80AE80AF80A0C151D052E051B
:100930003F0579F080818623841791F36C2D7D2DFE
:100940008E2D9F2D1F910F91FF90EF90DF90CF90F4
:10095000089560E070E080E090E01F910F91FF90BB
:10096000EF90DF90CF9008951092F5011092F4016E
:1009700088EE93E0A0E0B0E08093F6019093F70159
:10098000A093F801B093F90182E291E09093F30112
:100990008093F20185EC90E09093FF018093FE013B
:1009A00084EC90E0909301028093000280EC90E050
:1009B000909303028093020281EC90E090930502F1
:1009C0008093040282EC90E09093070280930602E9
:1009D00086EC90E0909309028093080210920B023B
:1009E00010920C0210920D0210920E028091B3022E
:1009F0008C30A0F491E0980F9093B3028093B402EE
:100A000090E0FC01EE0FFF1F8E0F9F1FFC01E157CE
:100A1000FD4F88EB9BE09283818303C08FEF80932F
:100A2000B402E7EBF2E085E1DF011D928A95E9F778
:100A30008CE090E09093B8028093B70288EE93E048
:100A40009093BA028093B9021092BB021092BC023A
:100A50001092BD021092BE021092BF021092C0020C
:100A60001092C1021092C20281E090E09093C702FE
:100A70008093C60282E090E09093C9028093C802FE
:100A800083E090E09093CB028093CA02089578941B
:100A900084B5826084BD84B5816084BD85B5826083
:100AA00085BD85B5816085BD80916E008160809334
:100AB0006E0010928100809181008260809381009D
:100AC00080918100816080938100809180008160AD
:100AD000809380008091B10084608093B100809108
:100AE000B00081608093B00080917A008460809330
:100AF0007A0080917A00826080937A0080917A00F7
:100B0000816080937A0080917A00806880937A0077
:100B10001092C10083E391E00E94BB02E0910202C7
:100B2000F091030282E08083E091FE01F091FF01E9
:100B30001082E0910002F09101028FEC808310920C
:100B40000A02E0910602F091070286E08083E091BC
:100B50000402F0910502808180618083E0910402AB
:100B6000F0910502808188608083E0910402F09119
:100B70000502808180688083E0910402F091050283
:100B800080818F7D808383E491E00E94BB0261E0DD
:100B9000809100010E945D0161E0809102010E944C
:100BA0005D0161E0809104010E945D0161E080913E
:100BB00006010E945D0188E591E00E94BB028DE67E
:100BC00091E00E94BB028AE590E00E948C00809137
:100BD000C6029091C7029093C4028093C30289E732
:100BE00091E00E94BB028091B4028C3008F054C0A6
:100BF000C091B70261E08C2F0E945D018091B40228
:100C0000E82FF0E09F01220F331FE20FF31FE1579F
:100C1000FD4FCF739081907CC92BC0831092B50299
:100C20001092B6026CE00E9457092CE0829FB0013E
:100C3000112440E050E09B01240F351FF901EE0F15
:100C4000FF1F2E0F3F1FF901E157FD4F908196FDC9
:100C500016C04F5F5F4F4C30510569F781110FC0CF
:100C60001092800082E080938100109285001092A3
:100C70008400B19A80916F00826080936F00E09150
:100C8000B402F0E0CF01880F991FE80FF91FE15778
:100C9000FD4F8081806480838DE891E00E94BB02DB
:100CA00061E080911C010E945D0160E080911A0169
:100CB0000E945D018EE991E00E94BB0260E080919C
:100CC00000010E94100160E0809102010E94100169
:100CD00060E0809104010E94100160E080910601B3
:100CE0000E941001109209011092080133E0E32ED6
:100CF000F12C43E2C42ED12C2FB7F8948091EE0151
:100D00009091EF01A091F001B091F1012FBF80937C
:100D1000E5019093E601A093E701B093E80180918B
:100D2000E5019091E601A091E701B091E8014091C1
:100D3000E1015091E2016091E3017091E401841BB3
:100D4000950BA60BB70B843F9140A105B10508F4A4
:100D500017C18091E5019091E601A091E701B09162
:100D6000E8018093E1019093E201A093E301B09345
:100D7000E4018091DF019091E00181309105A1F0C3
:100D80008230910511F1892B99F58AE590E00E9456
:100D90008C008091C6029091C7029093C402809308
:100DA000C30289E791E00EC08DE290E00E948C00C2
:100DB0008091C8029091C9029093C4028093C302AB
:100DC00083EA91E00E94BB0213C087E890E00E9492
:100DD0008C008091CA029091CB029093C4028093C0
:100DE000C30285EB91E00E94BB0281E08093C502C3
:100DF000C091DF01D091E00160E080911C010E9470
:100E00001001C7010197F1F761E080911C010E9478
:100E10001001C6010197F1F760E080911C010E946A
:100E2000100180911A0190911B019927FC01E6564F
:100E3000FF4F6491FC01EA57FF4FE491F0E0EE0FA1
:100E4000FF1FE859FF4F8591949100E412E42FE0D1
:100E500030E0462F0E946F046115710581059105F0
:100E600039F0DC01CB010196A11DB11DBF7003C09B
:100E700080E090E0DC0190930D0180930C01BC01B7
:100E8000990F880B990B0E945E0828E23EE74CE020
:100E90005DE30E94C20820E030E040E05FE30E9492
:100EA000C2080E94260870930F0160930E0188EC1F
:100EB00091E00E94A90280900E0190900F01092CF0
:100EC000000CAA08BB08B7FE0EC06DE282EF91E0ED
:100ED0000E94300266277727CB01681979098A09B1
:100EE0009B094AE003C04AE0C501B4010E94C9025F
:100EF00080E391E00E94A902CC0FDD1FC752DE4FB4
:100F000080910E0190910F0199838883E091DF0118
:100F1000F091E001EE0FFF1FE752FE4F80809180BD
:100F2000092C000CAA08BB08B7FE0EC06DE282EFC8
:100F300091E00E94300266277727CB016819790972
:100F40008A099B094AE003C04AE0C501B4010E9436
:100F5000C90280E391E00E94A9028091DF01909193
:100F6000E00101969093E0018093DF018091C5023A
:100F7000882331F01092E0011092DF011092C50237
:100F80000E949F02B9CE052E97FB1EF400940E948A
:100F9000DA0757FD07D00E94F50707FC03D04EF48F
:100FA0000C94DA0750954095309521953F4F4F4F5F
:100FB0005F4F089590958095709561957F4F8F4F05
:100FC0009F4F08950E941708A59F900DB49F900D04
:100FD000A49F800D911D11240895B7FF0C94E20782
:100FE0000E94E207821B930B0895A1E21A2EAA1B0E
:100FF000BB1BFD010DC0AA1FBB1FEE1FFF1FA217C9
:10100000B307E407F50720F0A21BB30BE40BF50BC5
:10101000661F771F881F991F1A9469F7609570954E
:10102000809590959B01AC01BD01CF010895A29FD1
:10103000B001B39FC001A39F700D811D1124911DAC
:10104000B29F700D811D1124911D08950E942D08DD
:101050006894B1110C94BC0808950E94A10888F00E
:101060009F5798F0B92F9927B751B0F0E1F0660F6C
:10107000771F881F991F1AF0BA95C9F714C0B130AD
:1010800091F00E94BB08B1E008950C94BB08672F53
:10109000782F8827B85F39F0B93FCCF386957795DC
:1010A0006795B395D9F73EF49095809570956195C5
:1010B0007F4F8F4F9F4F0895E89409C097FB3EF4F0
:1010C00090958095709561957F4F8F4F9F4F992395
:1010D000A9F0F92F96E9BB279395F6958795779513
:1010E0006795B795F111F8CFFAF4BB0F11F460FFD3
:1010F0001BC06F5F7F4F8F4F9F4F16C0882311F02B
:1011000096E911C0772321F09EE8872F762F05C03E
:10111000662371F096E8862F70E060E02AF09A95D9
:10112000660F771F881FDAF7880F9695879597F9CE
:10113000089557FD9058440F551F59F05F3F71F0C7
:101140004795880F97FB991F61F09F3F79F087952E
:101150000895121613061406551FF2CF4695F1DFB7
:1011600008C0161617061806991FF1CF8695710547
:10117000610508940895E894BB2766277727CB017B
:1011800097F908950E94D5080C9446090E943809E1
:1011900038F00E943F0920F0952311F00C942F099C
:1011A0000C94350911240C94BC080E94990870F322
:1011B000959FC1F3950F50E0551F629FF001729FFC
:1011C000BB27F00DB11D639FAA27F00DB11DAA1F0B
:1011D000649F6627B00DA11D661F829F2227B00D58
:1011E000A11D621F739FB00DA11D621F839FA00DE3
:1011F000611D221F749F3327A00D611D231F849F33
:10120000600D211D822F762F6A2F11249F57504089
:101210009AF0F1F088234AF0EE0FFF1FBB1F661F04
:10122000771F881F91505040A9F79E3F510580F0CD
:101230000C942F090C94BC085F3FE4F3983ED4F360
:10124000869577956795B795F795E7959F5FC1F771
:10125000FE2B880F911D9695879597F9089597F91C
:101260009F6780E870E060E008959FEF80EC08954C
:1012700000240A9416161706180609060895002475
:101280000A9412161306140605060895092E0394EF
:10129000000C11F4882352F0BB0F40F4BF2B11F463
:1012A00060FF04C06F5F7F4F8F4F9F4F0895991B62
:1012B00079E004C0991F961708F0961B881F7A954D
:1012C000C9F780950895EE0FFF1F0590F491E02D6A
:1012D000099481E090E0F8940C946E09F894FFCFA3
:1012E000080009000A000B000000FF0000000000D9
:1012F0000000E803F40100000000130012000000E9
:10130000000030029901C7017D02F801D601EA010F
:101310000D0A004C616E756368696E6720536574D1
:101320007570004D6F746F722073657475702073E3
:1013300074617274696E67004D6F746F72207365AB
:1013400074757020636F6D706C65746500536572A1
:10135000766F20736574757000536F6E6172206DC7
:101360006F76696E672063656E74726500556C7484
:101370007261736F6E6963205365747570005354A6
:101380004F5000536F6E6172206D6F76696E6720EB
:101390006C65667400536F6E6172206D6F76696E56
:1013A000672072696768740044697374616E63656D
:0813B0002028636D293A20009A
:107E0000112484B714BE81FFF0D085E080938100F7
:107E100082E08093C00088E18093C10086E0809377
:107E2000C20080E18093C4008EE0C9D0259A86E02C
:107E300020E33CEF91E0309385002093840096BBD3
:107E4000B09BFECF1D9AA8958150A9F7CC24DD24C4
:107E500088248394B5E0AB2EA1E19A2EF3E0BF2EE7
:107E6000A2D0813461F49FD0082FAFD0023811F036
:107E7000013811F484E001C083E08DD089C08234E0
:107E800011F484E103C0853419F485E0A6D080C0E4
:107E9000853579F488D0E82EFF2485D0082F10E0AE
:107EA000102F00270E291F29000F111F8ED06801E7
:107EB0006FC0863521F484E090D080E0DECF843638
:107EC00009F040C070D06FD0082F6DD080E0C81688
:107ED00080E7D80618F4F601B7BEE895C0E0D1E017
:107EE00062D089930C17E1F7F0E0CF16F0E7DF06D8
:107EF00018F0F601B7BEE89568D007B600FCFDCFD4
:107F0000A601A0E0B1E02C9130E011968C91119780
:107F100090E0982F8827822B932B1296FA010C0160
:107F200087BEE89511244E5F5F4FF1E0A038BF0790
:107F300051F7F601A7BEE89507B600FCFDCF97BE46
:107F4000E89526C08437B1F42ED02DD0F82E2BD052
:107F50003CD0F601EF2C8F010F5F1F4F84911BD097
:107F6000EA94F801C1F70894C11CD11CFA94CF0C13
:107F7000D11C0EC0853739F428D08EE10CD085E9AC
:107F80000AD08FE07ACF813511F488E018D01DD067
:107F900080E101D065CF982F8091C00085FFFCCF94
:107FA0009093C60008958091C00087FFFCCF809118
:107FB000C00084FD01C0A8958091C6000895E0E648
:107FC000F0E098E1908380830895EDDF803219F02E
:107FD00088E0F5DFFFCF84E1DECF1F93182FE3DFCA
:107FE0001150E9F7F2DF1F91089580E0E8DFEE27F6
:047FF000FF270994CA
:027FFE00040479
:0400000300007E007B
:00000001FF
