:100000000C9462000C948A000C948A000C948A0070
:100010000C948A000C948A000C948A000C948A0038
:100020000C948A000C948A000C948A000C94A80406
:100030000C948A000C948A000C948A000C948A0018
:100040000C9406040C948A000C9476040C945004CE
:100050000C948A000C948A000C948A000C948A00F8
:100060000C948A000C948A000000000023002600F3
:10007000290000000000240027002A0000000000E2
:10008000250028002B0004040404040404040202D4
:100090000202020203030303030301020408102007
:1000A0004080010204081020010204081020000012
:1000B0000008000201000003040700000000000027
:1000C0000000AE0511241FBECFEFD8E0DEBFCDBFCC
:1000D00012E0A0E0B1E0EEE7F7E102C005900D927A
:1000E000A430B107D9F722E0A4E0B2E001C01D922C
:1000F000AF3EB207E1F710E0C2E6D0E004C02197BE
:10010000FE010E94B20BC136D107C9F70E94450615
:100110000C94BD0B0C940000CF92DF92EF92FF92F3
:10012000DC01A03282E0B8070CF03EC0B7FD06C08B
:10013000A53BB1052CF0A4EBB0E002C0A0E0B0E01C
:100140008091D60228E830E06901C81AD10887FDFD
:10015000D394CC0CDD1CCC0CDD1C0D2C000CEE085B
:10016000FF088091D70228E532E0281B310987FD7E
:100170003395220F331F220F331FA901330F660B54
:10018000770B9A01AB012C193D094E095F090E94BA
:100190003C0A24EB30E040E050E00E94120AC20E1C
:1001A000D31EE41EF51ED6019091D5029C3098F521
:1001B0008091D60248E850E0481B510987FD5395CD
:1001C000440F551F440F551FA417B5078CF080919D
:1001D000D70228E532E0281B310987FD3395220F2D
:1001E000331F220F331FAD012A173B070CF4A9015F
:1001F00042505109440F551F2FB7F894892F90E0B2
:10020000FC01EE0FFF1F8E0F9F1FFC01E055FD4FFD
:10021000528341832FBFFF90EF90DF90CF900895DE
:100220002091020130910301809106019091070114
:100230002F3031053CF00196909307018093060121
:1002400081E008950197909307018093060180E073
:10025000089590E0FC01E255FF4F2491FC01E65621
:10026000FF4F3491FC01EA57FF4FE491EE2309F46C
:100270003CC0222339F1233091F038F42130A9F029
:10028000223001F584B58F7D12C0273091F02830DF
:10029000A1F02430B9F4809180008F7D03C080915B
:1002A00080008F77809380000DC084B58F7784BDE8
:1002B00009C08091B0008F7703C08091B0008F7D1E
:1002C0008093B000F0E0EE0FFF1FE458FF4FA591C0
:1002D000B4919FB7F894611104C08C913095382384
:1002E00002C0EC913E2B3C939FBF0895CF93DF93C8
:1002F00090E0FC01E656FF4F2491FC01EA57FF4FC6
:100300008491882361F190E0880F991FFC01EE58D9
:10031000FF4FC591D491FC01E458FF4FA591B491D2
:10032000611109C09FB7F894888120958223888342
:10033000EC912E230BC0623061F49FB7F894888152
:10034000322F309583238883EC912E2B2C939FBFE3
:1003500006C08FB7F894E8812E2B28838FBFDF91DA
:10036000CF9108951F93CF93DF93182FEB0161E096
:100370000E947601209711F460E004C0CF3FD105C0
:1003800039F461E0812FDF91CF911F910C94290105
:10039000E12FF0E0E255FF4FE491E330F9F048F44B
:1003A000E130B9F0E230A1F584B5806284BDC8BD0A
:1003B00034C0E730E9F0E83019F1E43049F58091D4
:1003C0008000806280938000D0938B00C0938A006D
:1003D00024C084B5806884BDC7BD1FC080918000E3
:1003E000806880938000D0938900C093880015C0F6
:1003F0008091B00080688093B000C093B3000DC0BE
:100400008091B00080628093B000C093B40005C0BA
:10041000C038D1050CF0B5CFAFCFDF91CF911F9190
:1004200008952FB7F89460910F0270911002809197
:100430001102909112022FBF0895CF92DF92EF9296
:10044000FF920F931F93CF93DF936C017A018B017F
:10045000C0E0D0E0CE15DF0581F0D8016D918D01AF
:10046000D601ED91FC910190F081E02DC601099536
:10047000892B11F02196EECF7E01C701DF91CF913C
:100480001F910F91FF90EF90DF90CF900895089506
:1004900080E090E00895FC01538D448D252F30E0DD
:1004A000842F90E0821B930B541710F0CF96089581
:1004B00001970895FC01918D828D981761F0828DCE
:1004C000DF01A80FB11D5D968C91928D9F5F9F7388
:1004D000928F90E008958FEF9FEF0895FC01918D2A
:1004E000828D981731F0828DE80FF11D858D90E097
:1004F00008958FEF9FEF0895FC01918D228D892F34
:1005000090E0805C9F4F821B91098F73992708951B
:1005100083E192E00E947C0221E0892B09F420E033
:10052000822F0895FC01848DDF01A80FB11DA35A0D
:10053000BF4F2C91848D90E001968F739927848F03
:10054000A689B7892C93A089B1898C918370806426
:100550008C93938D848D981306C00288F389E02DC7
:1005600080818F7D80830895EF92FF920F931F9378
:10057000CF93DF93EC0181E0888F9B8D8C8D981356
:1005800005C0E889F989808185FD26C0F62E0B8D8E
:1005900010E00F5F1F4F0F731127E02E8C8DE812B4
:1005A0000CC00FB607FCFACFE889F989808185FF76
:1005B000F5CFCE010E949202F1CF8B8DFE01E80FA4
:1005C000F11DE35AFF4FF0829FB7F8940B8FEA8931
:1005D000FB89808180620AC09FB7F894EE89FF8909
:1005E0006083E889F98980818370806480839FBFFC
:1005F00081E090E0DF91CF911F910F91FF90EF90FC
:100600000895CF93DF93EC01888D8823C9F0EA89A0
:10061000FB89808185FD05C0A889B9898C9186FDFB
:100620000FC00FB607FCF5CF808185FFF2CFA889F8
:10063000B9898C9185FFEDCFCE010E949202E7CF60
:10064000DF91CF91089580E090E0892B29F00E94FE
:10065000880281110C9400000895009769F0FC0154
:1006600001900020E9F73197AF01481B590BBC01FD
:1006700083E192E00C941D0280E090E00895CF9316
:10068000DF930E942D03EC0180E491E00E942D0392
:100690008C0F9D1FDF91CF9108950F931F93CF93E0
:1006A000DF93EC010E9411026093260170932701F1
:1006B000809328019093290100912A0110912B0128
:1006C00020912C0130912D01DC01CB01801B910B7D
:1006D000A20BB30B0091240110912501012E000CF7
:1006E000220B330B80179107A207B30708F487C0CA
:1006F000C230D105D9F06CF4209709F454C0C13050
:10070000D10509F06CC083E491E00E943F0361E0F1
:100710003AC0C330D10539F1C430D10509F05FC00A
:1007200089E591E00E943F0360E02DC08BE491E0F9
:100730000E943F0360E0809114010E94290161E062
:10074000809116010E94290160E0809118010E94A9
:10075000290161E080911A010E942901D0932101B1
:10076000C09320013CC083E591E00E943F0361E01B
:10077000809114010E94290160E0809116010E947D
:10078000290160E00AC0809114010E94290160E003
:10079000809116010E94290161E0809118010E9458
:1007A000290160E0D7CF8EE591E00E943F0360E031
:1007B000809114010E94290160E0809116010E943D
:1007C000290160E0809118010E94290160E0809178
:1007D0001A010E942901109221011092200180919A
:1007E000260190912701A0912801B09129018093C1
:1007F0002A0190932B01A0932C01B0932D01DF913E
:10080000CF911F910F9108950E94B80B1F920F92E4
:100810000FB60F9211242F933F938F939F93AF9313
:10082000BF9380910F0290911002A0911102B0919C
:10083000120230910E0223E0230F2D3720F401968F
:10084000A11DB11D05C026E8230F0296A11DB11DF3
:1008500020930E0280930F0290931002A093110236
:10086000B093120280910A0290910B02A0910C02A7
:10087000B0910D020196A11DB11D80930A029093C3
:100880000B02A0930C02B0930D02BF91AF919F9108
:100890008F913F912F910F900FBE0F901F90189541
:1008A0001F920F920FB60F9211242F933F934F93E5
:1008B0005F936F937F938F939F93AF93BF93EF93C8
:1008C000FF9383E192E00E949202FF91EF91BF912A
:1008D000AF919F918F917F916F915F914F913F91D8
:1008E0002F910F900FBE0F901F9018951F920F928F
:1008F0000FB60F9211242F938F939F93EF93FF9333
:10090000E0912302F09124028081E0912902F0918C
:100910002A0282FD12C0908180912C028F5F8F731A
:1009200020912D02821751F0E0912C02F0E0ED5E53
:10093000FD4F958F80932C0201C08081FF91EF9134
:100940009F918F912F910F900FBE0F901F90189530
:100950001F920F920FB60F9211242F933F934F9334
:100960005F936F937F938F939F93AF93BF93EF9317
:10097000FF938091040287FF05C0109285001092BA
:1009800084001BC020910402022E000C330B8091C6
:10099000D40290E02817390784F480910402082ECD
:1009A000000C990BFC01EE0FFF1F8E0F9F1FFC0127
:1009B000E055FD4F808186FD15C0809104028F5F58
:1009C0008093040220910402022E000C330B8091CC
:1009D000D40290E028173907C4F4809104028C30C7
:1009E00064F113C080910402082E000C990BFC01E5
:1009F000EE0FFF1F8E0F9F1FFC01E055FD4F808102
:100A000060E08F730E942901D8CF8091840090917B
:100A10008500049680349C4918F480E49CE905C064
:100A20008091840090918500049690938900809332
:100A300088008FEF809304023BC0209184003091A6
:100A4000850080910402082E000C990BFC01EE0F2A
:100A5000FF1F8E0F9F1FFC01E055FD4F818192818A
:100A6000820F931F909389008093880080910402E5
:100A7000082E000C990BFC01EE0FFF1F8E0F9F1F1D
:100A8000FC01E055FD4F808186FF12C08091040279
:100A9000082E000C990BFC01EE0FFF1F8E0F9F1FFD
:100AA000FC01E055FD4F808161E08F730E942901B8
:100AB000FF91EF91BF91AF919F918F917F916F9136
:100AC0005F914F913F912F910F900FBE0F901F900C
:100AD0001895CF92DF92EF92FF920F931F93E82F1A
:100AE000F92F05C0015011092109310961F19081E7
:100AF00096239417B9F305C0015011092109310952
:100B000011F1908196239413F7CFC12CD12CE12CB5
:100B1000F12C0AC08FEFC81AD80AE80AF80A0C1597
:100B20001D052E053F0579F080818623841791F3FA
:100B30006C2D7D2D8E2D9F2D1F910F91FF90EF908D
:100B4000DF90CF90089560E070E080E090E01F912A
:100B50000F91FF90EF90DF90CF90089510921602C2
:100B60001092150288EE93E0A0E0B0E080931702A7
:100B700090931802A0931902B0931A0282E391E0B5
:100B8000909314028093130285EC90E090932002DE
:100B900080931F0284EC90E09093220280932102C4
:100BA00080EC90E0909324028093230281EC90E00B
:100BB000909326028093250282EC90E09093280285
:100BC0008093270286EC90E090932A02809329027A
:100BD00010922C0210922D0210922E0210922F02CF
:100BE0008091D4028C30A0F491E0980F9093D402BD
:100BF0008093D50290E0FC01EE0FFF1F8E0F9F1F28
:100C0000FC01E055FD4F88EB9BE09283818303C09C
:100C10008FEF8093D502E8EDF2E087E1DF011D92CE
:100C20008A95E9F78CE090E09093D9028093D802FE
:100C300084EF91E09093DB028093DA021092DC0261
:100C40001092DD021092DE021092DF021092E0029A
:100C50001092E1021092E2021092E30281E090E031
:100C60009093E5028093E4029093EA028093E90274
:100C700082E090E09093EC028093EB0283E090E0BE
:100C80009093EE028093ED020895CF93DF93CDB75A
:100C9000DEB7A1970FB6F894DEBF0FBECDBF789434
:100CA00084B5826084BD84B5816084BD85B5826071
:100CB00085BD85B5816085BD80916E008160809322
:100CC0006E0010928100809181008260809381008B
:100CD000809181008160809381008091800081609B
:100CE000809380008091B10084608093B1008091F6
:100CF000B00081608093B00080917A00846080931E
:100D00007A0080917A00826080937A0080917A00E4
:100D1000816080937A0080917A00806880937A0065
:100D20001092C10083E691E00E943F03E09123020C
:100D3000F091240282E08083E0911F02F091200272
:100D40001082E0912102F09122028FEC80831092B8
:100D50002B02E0912702F091280286E08083E09147
:100D60002502F0912602808180618083E091250236
:100D7000F0912602808188608083E0912502F091C5
:100D80002602808180688083E0912502F09126020E
:100D900080818F7D808383E791E00E943F0361E043
:100DA000809114010E94760161E0809116010E94F9
:100DB000760161E0809118010E94760161E08091E6
:100DC0001A010E94760161E080911C010E94760167
:100DD00061E080911E010E94760188E891E00E9406
:100DE0003F03609122017091230180911C010E94B8
:100DF000B201609122017091230180911E010E9435
:100E0000B2018DE991E00E943F038AE590E00E94E3
:100E10008C008091E9029091EA029093E70280931E
:100E2000E60289EA91E00E943F038091D5028C306E
:100E300008F054C01091D80261E0812F0E94760121
:100E40008091D502E82FF0E09F01220F331FE20FBF
:100E5000F31FE055FD4F1F739081907C192B108379
:100E60001092D6021092D7026CE00E94A60B2CE0E2
:100E7000829FB001112440E050E09B01240F351FF8
:100E8000F901EE0FFF1F2E0F3F1FF901E055FD4F37
:100E9000908196FD16C04F5F5F4F4C30510569F74A
:100EA00081110FC01092800082E080938100109227
:100EB000850010928400B19A80916F0082608093C7
:100EC0006F00E091D502F0E0CF01880F991FE80F85
:100ED000F91FE055FD4F8081806480838DEB91E0A8
:100EE0000E943F0361E0809112010E94760160E060
:100EF000809110010E9476018FEF90E09093230182
:100F0000809322016FEF70E080911C010E94B2017A
:100F1000609122017091230180911E010E94B20113
:100F200080E090E00E944D0393E0E92EF12CCC2468
:100F3000C394D12C32E0232E312C4AE0842E912C04
:100F4000A12CB12C8091E4029091E50282309105B0
:100F500009F458C08330910509F4A5C0019709F040
:100F6000F1C00E9411026093DC027093DD02809355
:100F7000DE029093DF024091DC025091DD0260912D
:100F8000DE027091DF028091E0029091E102A09177
:100F9000E202B091E302481B590B6A0B7B0B809174
:100FA000DA029091DB02092E000CAA0BBB0B48174A
:100FB00059076A077B0708F4C5C08AE590E00E94DC
:100FC0008C008091E9029091EA029093E70280936D
:100FD000E60289EA91E00E943F038091DC02909151
:100FE000DD02A091DE02B091DF028093E0029093D7
:100FF000E102A093E202B093E3023092E502209274
:10100000E402A0C00E9411026093DC027093DD0232
:101010008093DE029093DF024091DC025091DD026A
:101020006091DE027091DF028091E0029091E10216
:10103000A091E202B091E302481B590B6A0B7B0BB3
:101040008091DA029091DB02092E000CAA0BBB0BF7
:10105000481759076A077B0708F474C080E090E0DE
:101060000E948C008091EB029091EC029093E70239
:101070008093E6028EEC91E00E943F038091DC02B7
:101080009091DD02A091DE02B091DF028093E00238
:101090009093E102A093E202B093E302F092E502A2
:1010A000E092E4024FC00E9411026093DC02709350
:1010B000DD028093DE029093DF024091DC025091CA
:1010C000DD026091DE027091DF028091E00290917A
:1010D000E102A091E202B091E302481B590B6A0BB6
:1010E0007B0B8091DA029091DB02092E000CAA0B97
:1010F000BB0B481759076A077B0720F184EB90E088
:101100000E948C008091ED029091EE029093E70294
:101110008093E60280EE91E00E943F038091DC0222
:101120009091DD02A091DE02B091DF028093E00297
:101130009093E102A093E202B093E302D092E50221
:10114000C092E4020E94110240900C0150900D01E7
:1011500060900E0170900F01AB01BC01441955095C
:101160006609770980910A0190910B01092E000C04
:10117000AA0BBB0B481759076A077B0708F4C4C0C2
:101180000E94110220910801309109012901330FB9
:1011900066087708641575058605970508F4B4C0D8
:1011A0008091040190910501892B09F4A9C08091D7
:1011B0000A0190910B01092E000CAA0BBB0B409168
:1011C0000C0150910D0160910E0170910F01840F7F
:1011D000951FA61FB71F80930C0190930D01A0933C
:1011E0000E01B0930F0160E0809112010E9429016D
:1011F000C7010197F1F761E0809112010E94290176
:1012000083E290E00197F1F760E0809112010E9483
:10121000290180911001909111019927FC01E65656
:10122000FF4F6491FC01EA57FF4FE491F0E0EE0FAD
:10123000FF1FE859FF4F8591949100E412E42FE0DD
:1012400030E0462F0E946905611571058105910501
:1012500009F47AC0DC01CB010196A11DB11DBF705C
:101260009093010180930001BC01990F880B990BA9
:101270000E94AD0A28E23EE74CE05DE30E94110BBC
:1012800020E030E040E05FE30E94110B0E94750A0D
:10129000709303016093020183EF91E00E942D039C
:1012A0004090020150900301052C000C660877085D
:1012B00077FE4EC06DE283E192E00E94B4022227E5
:1012C0003327A901241935094609570919A2CE0166
:1012D00081963C01CA01B901A50194010E94440A0A
:1012E000605DF30162933F01211531054105510510
:1012F00089F7C3010E942D0380E491E00E942D0331
:10130000D0920501C09204010E941102609306026E
:101310007093070280930802909309022091E602DD
:101320003091E7028091EB029091EC022817390787
:1013300029F50E941001811121C0809105028823A6
:10134000E9F084E090E02FC080E090E0DC0188CFFD
:10135000A301920119A2CE0181963C01CA01B901F3
:10136000A50194010E94440A605DF30162933F016C
:10137000211531054105510589F7BBCF2091ED02BB
:101380003091EE028091E6029091E702281739072A
:1013900009F50E94100181111DC08091050288236A
:1013A000C9F083E090E00E944D0310920502809105
:1013B000060290910702A0910802B0910902883EAE
:1013C0009340A105B10518F081E0809305020E94C9
:1013D0002303B8CD2091E9023091EA028091E60220
:1013E0009091E7022817390759F40E9410018823C9
:1013F00039F080910502882319F081E090E0D3CF85
:101400002091E9023091EA028091E6029091E70290
:101410002817390761F60E9410018111C8CF82E0B8
:1014200090E0C1CF052E97FB1EF400940E94290A7C
:1014300057FD07D00E94440A07FC03D04EF40C94D9
:10144000290A50954095309521953F4F4F4F5F4F5A
:10145000089590958095709561957F4F8F4F9F4F20
:1014600008950E94660AA59F900DB49F900DA49FB9
:10147000800D911D11240895B7FF0C94310A0E942C
:10148000310A821B930B0895A1E21A2EAA1BBB1BE3
:10149000FD010DC0AA1FBB1FEE1FFF1FA217B30740
:1014A000E407F50720F0A21BB30BE40BF50B661F56
:1014B000771F881F991F1A9469F76095709580951A
:1014C00090959B01AC01BD01CF010895A29FB00191
:1014D000B39FC001A39F700D811D1124911DB29F68
:1014E000700D811D1124911D08950E947C0A68943D
:1014F000B1110C940B0B08950E94F00A88F09F57CD
:1015000098F0B92F9927B751B0F0E1F0660F771F27
:10151000881F991F1AF0BA95C9F714C0B13091F01D
:101520000E940A0BB1E008950C940A0B672F782FE4
:101530008827B85F39F0B93FCCF3869577956795E2
:10154000B395D9F73EF490958095709561957F4F4E
:101550008F4F9F4F0895E89409C097FB3EF49095F4
:101560008095709561957F4F8F4F9F4F9923A9F07C
:10157000F92F96E9BB279395F6958795779567950B
:10158000B795F111F8CFFAF4BB0F11F460FF1BC04F
:101590006F5F7F4F8F4F9F4F16C0882311F096E9E2
:1015A00011C0772321F09EE8872F762F05C0662390
:1015B00071F096E8862F70E060E02AF09A95660F49
:1015C000771F881FDAF7880F9695879597F9089502
:1015D00057FD9058440F551F59F05F3F71F04795E4
:1015E000880F97FB991F61F09F3F79F087950895C9
:1015F000121613061406551FF2CF4695F1DF08C0E8
:10160000161617061806991FF1CF86957105610504
:1016100008940895E894BB2766277727CB0197F9AC
:1016200008950E94240B0C94950B0E94870B38F0B0
:101630000E948E0B20F0952311F00C947E0B0C94DD
:10164000840B11240C940B0B0E94E80A70F3959FF5
:10165000C1F3950F50E0551F629FF001729FBB27A9
:10166000F00DB11D639FAA27F00DB11DAA1F649F45
:101670006627B00DA11D661F829F2227B00DA11DF8
:10168000621F739FB00DA11D621F839FA00D611D7E
:10169000221F749F3327A00D611D231F849F600D9F
:1016A000211D822F762F6A2F11249F5750409AF0C8
:1016B000F1F088234AF0EE0FFF1FBB1F661F771F54
:1016C000881F91505040A9F79E3F510580F00C941F
:1016D0007E0B0C940B0B5F3FE4F3983ED4F386959E
:1016E00077956795B795F795E7959F5FC1F7FE2BBF
:1016F000880F911D9695879597F9089597F99F679B
:1017000080E870E060E008959FEF80EC0895002489
:101710000A941616170618060906089500240A9456
:1017200012161306140605060895092E0394000CDC
:1017300011F4882352F0BB0F40F4BF2B11F460FF6B
:1017400004C06F5F7F4F8F4F9F4F0895991B79E0C3
:1017500004C0991F961708F0961B881F7A95C9F741
:1017600080950895EE0FFF1F0590F491E02D0994E8
:0E17700081E090E0F8940C94BD0BF894FFCF4C
:10177E000000000000000000F401FA00000000006C
:10178E0013001200080009000A000B0005000600F5
:10179E0000007D00E80300000000000000000000D3
:1017AE000000B4021D024B0201037C025A026E02BB
:1017BE000D0A00464F52574152440052455645526B
:1017CE005345005249474854004C45465400535423
:1017DE004F50004C616E756368696E672053657477
:1017EE007570004D6F746F72207365747570207311
:1017FE0074617274696E67004D6F746F72207365D9
:10180E0074757020636F6D706C65746500536572CE
:10181E00766F20736574757000536F6E6172206DF4
:10182E006F76696E672063656E74726500556C74B1
:10183E007261736F6E696320536574757000536FB8
:10184E006E6172206D6F76696E67206C65667400CE
:10185E00536F6E6172206D6F76696E672072696765
:10186E0068740044697374616E63652028636D2922
:04187E003A2000000C
:107E0000112484B714BE81FFF0D085E080938100F7
:107E100082E08093C00088E18093C10086E0809377
:107E2000C20080E18093C4008EE0C9D0259A86E02C
:107E300020E33CEF91E0309385002093840096BBD3
:107E4000B09BFECF1D9AA8958150A9F7CC24DD24C4
:107E500088248394B5E0AB2EA1E19A2EF3E0BF2EE7
:107E6000A2D0813461F49FD0082FAFD0023811F036
:107E7000013811F484E001C083E08DD089C08234E0
:107E800011F484E103C0853419F485E0A6D080C0E4
:107E9000853579F488D0E82EFF2485D0082F10E0AE
:107EA000102F00270E291F29000F111F8ED06801E7
:107EB0006FC0863521F484E090D080E0DECF843638
:107EC00009F040C070D06FD0082F6DD080E0C81688
:107ED00080E7D80618F4F601B7BEE895C0E0D1E017
:107EE00062D089930C17E1F7F0E0CF16F0E7DF06D8
:107EF00018F0F601B7BEE89568D007B600FCFDCFD4
:107F0000A601A0E0B1E02C9130E011968C91119780
:107F100090E0982F8827822B932B1296FA010C0160
:107F200087BEE89511244E5F5F4FF1E0A038BF0790
:107F300051F7F601A7BEE89507B600FCFDCF97BE46
:107F4000E89526C08437B1F42ED02DD0F82E2BD052
:107F50003CD0F601EF2C8F010F5F1F4F84911BD097
:107F6000EA94F801C1F70894C11CD11CFA94CF0C13
:107F7000D11C0EC0853739F428D08EE10CD085E9AC
:107F80000AD08FE07ACF813511F488E018D01DD067
:107F900080E101D065CF982F8091C00085FFFCCF94
:107FA0009093C60008958091C00087FFFCCF809118
:107FB000C00084FD01C0A8958091C6000895E0E648
:107FC000F0E098E1908380830895EDDF803219F02E
:107FD00088E0F5DFFFCF84E1DECF1F93182FE3DFCA
:107FE0001150E9F7F2DF1F91089580E0E8DFEE27F6
:047FF000FF270994CA
:027FFE00040479
:0400000300007E007B
:00000001FF
